:100336006765743A004042CC0000445454547F54DC
:10034600545444400000007F201000FF1515155539
:10035600957F000000404042CC0008E9AAB8A8A852
:10036600AAE90800000040201F20405F4A4A4A4A86
:100376004A5F40400000F80102F09292F29292F237
:100386000202FE000000FF00000F04047F04040FB9
:1003960040807F0000000022322AA6A262211109B5
:1003A6008101000000004222130B42827E02020AF3
:1003B60012234600002030AC63300088C8A8998E0E
:1003C60088A8C8880022672212128040300F0000D9
:1003D6003F40407100004042445840407F404050FA
:1003E60048C6000000004044444444444444444455
:1003F60044FF0000000808E8292E28E80808C80C71
:100406000BE80808000000FF0949897F00000F403B
:10041600807F000000484AFA0AFE09F949A8000050
:10042600F00000FF0022110B04FF04091223000054
:100436000F40807F0080804020504844C34448508D
:1004460020408080000040221A0242827F0202027F
:100456000A126000000008884828180FE8080808F3
:10046600080808000008080909090909FF09090917
:100476000909080800008060F8071090101116108E
:1004860010D0100000010000FF4040415E40407067
:100496004E41404000000000000000000000000047
:1004A60000000000000000363600000000000000DA
:1004B6000000000000404040404040FF44444444A7
:1004C6004444404000000000000000FF0000020419
:1004D6000810000000808080BEA2A2A2A2A2A2A252
:1004E600BE808080000000000605040404448444A5
:1004F6003C000000000000000000000000000000BA
:100506000000000000000036360000000000000079
:10051600000000000004244484649C40300FC80896
:10052600082818000010080601824C20180601064B
:100536001820408000404042CC0000FC040200FC31
:100546000404FC00000040201F20404F4442407F2E
:100556004244434000201008FC2310886704F4043A
:1005660024548C000040300077808188B2848380D8
:10057600E000116000000000000000000000000024
:1005860000000000000000363600000000000000F9
:1005960000000000008080808080808080808080D5
:1005A6008080808000000000000000000000000045
:1005B6000000000000003E22E2223E001088572480
:1005C600548C000000407E403F22220001FE424241
:1005D60042FE01010000020212620202FE02024213
:1005E600320202000001010101010101FF010101C6
:1005F600010101010080908C848484F586848484C2
:1006060084948C80000080808446492810102C2316
:100616004080000000000000000000000000000014
:1006260000000000000000000000000000000000C4
:050636000000000000BF
:0F0DDF00010900011E00010800012001011F5041
:100DAD0053890F438920758DFD758BFDD28EC29FA2
:090DBD00D29ED2AFD2ACD29C222E
:100003007C00AF03AE021209F57C007D0A1209F5EC
:04001300ED2430FFA9
:0C001700C2AC8F993099FDC299D2AC2286
:060D2D008B218A228923BC
:100D3300E4FDFCAB21AA22A9238D828C831209C86E
:0D0D4300FF600A1200170DBD00010C80E6D4
:010D50002280
:100D0500AB07AA067C277D101200097C037DE8123B
:100D150000057D641200037D0A120003AE02AF03D5
:080D250012000C7F0D02001703
:100DC600EF4E6014E4FDFC0DBD00010CEDF44C701B
:080DD600F6EF1F70EB1E80E830
:010DDE0022F2
:100C4100E51F75F00A847D0E75F00A84E5F0243005
:030C5100FB7F0125
:100C54008F268D27EB75F010A42426F974FE35F049
:100C6400FA7BFFE52625E0FFE52775F008A4FD02E1
:020C74000CD89A
:0A0BFA008F3B8D3C8B3D8A3E893F06
:100C0400E4F540AB3DAA3EA93FAF40EF3395E08FFA
:100C140082F5831209C8FF602375F010A42426F915
:100C240074FE35F0FA7BFFE53B25E0FFE53C25400B
:0C0C340075F008A4FD120CD8054080C724
:010C40002291
:10063B00D2B4D2B2D2A3D2A4D2A0120D74120DADE9
:10064B007BFF7A03795BE4FDFF120CAB7BFF7A0334
:10065B00797A7D10E4FF120CAB7BFF7A03799A7DDC
:10066B0020E4FF120CAB7BFF7A0379BA7D30E4FFF9
:10067B00120CAB7BFF7A0379DBE4FD7F02120CAB30
:10068B007BFF7A0379FA7D107F02120CAB7BFF7A2A
:10069B0004791A7D207F02120CAB7BFF7A04793A26
:1006AB007D307F02120CAB7BFF7A04795A7D407F41
:1006BB0002120CAB7BFF7A04797A7D507F02120C0D
:1006CB00AB7BFF7A04799A7D607F02120CAB120C24
:1006DB0041E51F7D0F120C49E51E64016003020703
:1006EB0085E512642A70767BFF7A0479BBFD7F0661
:1006FB00120CAB7BFF7A0479DA7D107F06120CAB00
:10070B007BFF7A0479FA7D207F06120CABAB0B7D55
:10071B00087F03120C54AB0C7D097F03120C54ABF6
:10072B000D7D0A7F03120C54AB0E7D0B7F03120C55
:10073B0054AB0F7D0C7F03120C54AB107D0D7F035C
:10074B00120C54AB117D0E7F03120C54C2B47F2CD0
:10075B007E01120DC6D2B4750801752001E4F52493
:10076B00F525740A2525F8E4F60525E5257002051F
:10077B00246414452470EBE4F51E20B204C2A3D20A
:10078B00A420B203020903E5087004D2A3C2A4E5B6
:10079B000864016003020903C2A3D2A420A035F5AB
:1007AB00207BFF7A05791BFD7F04120CAB7BFF7A54
:1007BB0005793A7D107F04120CAB7BFF7A05795AD1
:1007CB007D207F04120CAB7BFF7A05797A7D307F1D
:1007DB0004120CABE520707030A06D752001F5088C
:1007EB00151F120C41E51F75F00A84E5F02430FB50
:1007FB007D0F7F01120C54E4F524F525E525C45437
:10080B00F0FD7BFF7A06791B7F04120CAB0525E507
:10081B002570020524C39408E524940040DEE4F51A
:10082B0024F525E525C454F0FD7BFF7A06791B7F63
:10083B0006120CAB0525E52570020524C39408E5CB
:10084B0024940040DE30A0FD20A1377520027BFFF1
:10085B007A05799BE4FD7F04120CAB7BFF7A05795B
:10086B00BA7D107F04120CAB7BFF7A0579DA7D2001
:10087B007F04120CAB7BFF7A0579FA7D307F041273
:10088B000CABE5206402707030A16D752001F5088A
:10089B00051F120C41E51F75F00A84E5F02430FBAF
:1008AB007D0F7F01120C54E4F524F525E525C45486
:1008BB00F0FD7BFF7A06791B7F04120CAB0525E557
:1008CB002570020524C39408E524940040DEE4F56A
:1008DB0024F525E525C454F0FD7BFF7A06791B7FB3
:1008EB0006120CAB0525E52570020524C39408E51B
:1008FB0024940040DE30A0FD7F0A7E00120DC6025C
:02090B0006E301
:03002300020B9934
:100B9900C0E0C083C082C0D075D000C000C001C011
:090BA90002C003C004C005C0072E
:100BB20030982EC298AF99BF2303750900740A2595
:100BC20009F8A6070509BF2A18750900751E017BD9
:100BD200FF7A037936120D2D7B007A00790A120D05
:010BE2002DE5
:100BE300D007D005D004D003D002D001D000D0D09C
:070BF300D082D083D0E03274
:0E0DEF007580FFD291C290D292C292A287224A
:100D5100AB2FAA30A9318532827583001209C8FFF1
:100D6100120DEF40FB7580FFC291D2908F80D2921D
:030D7100C2922209
:090D9100C2A7D2A6E52C24B8FF8C
:100D9A00120DEF40FB7580FFC291C2908F80D292F4
:030DAA00C29222D0
:100D7400D2A7D2A67F38120D9A7F0F120D9A7F0147
:0D0D8400120D9A7F06120D9A7FC0020D9A83
:060A80008F2C8D2D8B2E42
:100A8600E52DC394405066D2A7C2A6120D95E52D5A
:100A96002440FF120D9AE52D252EFFE433FEC3EF09
:100AA6009440EE648094805011E4F532E532C395AB
:100AB6002E5053120D51053280F2E4F532C37440C4
:100AC600952DFFE532C39F5007120D51053280ED7B
:100AD600120D917F40120D9AC37440952DF532E5A3
:100AE60032C3952E5020120D51053280F2120D910F
:100AF600AF2D120D9AE4F532E532C3952E5007124A
:060B06000D51053280F2E2
:010B0C0022C6
:100CAB008F268B278A288929AC058B2F8A3089318F
:100CBB007B10120A80E52604FFE5292410F9E435A0
:0D0CCB002885272FF53089317B10020A8023
:100CD8008F288B298A2A892BAC058B2F8A3089315A
:100CE8007B08120A80E52804FFE52B2408F9E4357F
:0D0CF8002A85292FF53089317B08020A80FA
:060C76008F338D348B3535
:100C7C00E4F53AE53AC395365024E53A8535F0A4C7
:100C8C002539F9E53835F085372FF5308931E533DD
:0E0C9C00253AFFAB35AD34120A80053A80D5FB
:010CAA002227
:1000260040424CC40022AAAAAABFAAAAAA22200019
:100036000000007F2010FF0A0A0A4A8A7F0000009B
:1000460044F44FE4446490989493149808D01000B4
:10005600040404FF0202FF4A8A7F003F80FF00007B
:100066000000000001837618608000000000000098
:10007600402010080601000000000304183010009C
:10008600000000000000000000000000000000006A
:1000960000003636000000000000000000000000EE
:1000A600000000000000000000000000000000004A
:1000B600000000000000000000000000000000003A
:1000C600000000000000000000000000000000002A
:1000D600000000000000000000000000000000001A
:1000E600000000000000000000000000000000000A
:1000F60000000000000000000000000000000000FA
:1001060000000000000000000000000000000000E9
:1001160000000000000000000000000000000000D9
:1001260000E010080810E000000F102020100F005B
:10013600001010F8000000000020203F20200000E2
:10014600007008080888700000302824222130003A
:1001560000300888884830000018202020110E0042
:100166000000C02010F8000000070424243F2400EB
:1001760000F80888880808000019212020110E00C0
:1001860000E0108888180000000F112020110E00D2
:1001960000380808C83808000000003F00000000CA
:1001A6000070880808887000001C222121221C008B
:1001B60000E010080810E0000000312222110F00B4
:1001C60000E010080810E000000F102020100F00BB
:1001D600001010F8000000000020203F2020000042
:1001E600007008080888700000302824222130009A
:1001F60000300888884830000018202020110E00A2
:100206000000C02010F8000000070424243F24004A
:1002160000F80888880808000019212020110E001F
:1002260000E0108888180000000F112020110E0031
:1002360000380808C83808000000003F0000000029
:100246000070880808887000001C222121221C00EA
:1002560000E010080810E0000000312222110F0013
:10026600000000008060180400601806010000000D
:10027600404080F0804040000202010F010202006F
:100286000000000000000000000101010101010161
:10029600000000F0000000000101011F0101010043
:1002A600404040404040400004040404040404006C
:1002B60000804030080482816101128A891101059B
:1002C600130989910131C20A04020202021CE000EC
:1002D6000605C4320A058241202649505CADA6A017
:1002E6008649505C8D0680410202040C34C8090E12
:1002F6000000030C10204354A8D090262640404C02
:100306004C2020904C038384404020300C03000096
:10031600E0F0F8DC8E031F215CB4341D0D060E0ED2
:10032600060D1D35351D8040211F038EDCF8F0E0DB
:10090D00D2A7C2A67FB8120D9A7F66120D9A7541B5
:10091D00267FC0120D610541E541C3944040F2753B
:10092D004101E54124B8FF120D9A7F66120D9A7FA1
:10093D00FF120D617FFF120D610541E541C3940763
:10094D0040E07FBF120D9A7F66120D9A7541267F8A
:10095D0003120D610541E541C3944040F2C2A7D297
:10096D00A67FB8120D9A7F40120D9AE4F5417FC013
:10097D00120D610541E541C3943E40F2754101E51B
:10098D004124B8FF120D9A7F7C120D9A7FFF120D34
:10099D00617FFF120D610541E541C3940740E07F82
:1009AD00BF120D9A7F40120D9AE4F5417F03120D8F
:0A09BD00610541E541C3943E40F29C
:0109C700220D
:03000000020B0DE3
:0C0B0D00787FE4F6D8FD758141020B549E
:1009C800BB010CE58229F582E5833AF583E02250E4
:1009D80006E92582F8E622BBFE06E92582F8E2222E
:0D09E800E58229F582E5833AF583E4932248
:1009F500C2D5EC30E709B2D5E4C39DFDE49CFCEE1D
:100A050030E715B2D5E4C39FFFE49EFE120A2BC35F
:100A1500E49DFDE49CFC8003120A2B30D507C3E45A
:060A25009FFFE49EFE228B
:100B190002063BE493A3F8E493A34003F68001F2B1
:100B290008DFF48029E493A3F85407240CC8C333DD
:100B3900C4540F4420C8834004F456800146F6DFAC
:100B4900E4800B0102040810204080900DDFE47E50
:100B5900019360BCA3FF543F30E509541FFEE493A1
:100B6900A360010ECF54C025E060A840B8E493A368
:100B7900FAE493A3F8E493A3C8C582C8CAC583CA93
:100B8900F0A3C8C582C8CAC583CADFE9DEE780BE4B
:010DEE000004
:100A2B00BC000BBE0029EF8DF084FFADF022E4CCAF
:100A3B00F875F008EF2FFFEE33FEEC33FCEE9DEC78
:100A4B00984005FCEE9DFE0FD5F0E9E4CEFD22EDBE
:100A5B00F8F5F0EE8420D21CFEADF075F008EF2F08
:100A6B00FFED33FD4007985006D5F0F222C398FDF9
:050A7B000FD5F0EA2296
:00000001FF
