BL51 BANKED LINKER/LOCATER V6.00                                                        06/17/2020  17:43:52  PAGE 1


BL51 BANKED LINKER/LOCATER V6.00, INVOKED BY:
E:\KEIL\C51\BIN\BL51.EXE yy.obj TO yy RAMSIZE (256)


MEMORY MODEL: SMALL


INPUT MODULES INCLUDED:
  yy.obj (YY)
  E:\KEIL\C51\LIB\C51S.LIB (?C_STARTUP)
  E:\KEIL\C51\LIB\C51S.LIB (?C?CLDOPTR)
  E:\KEIL\C51\LIB\C51S.LIB (?C?SIDIV)
  E:\KEIL\C51\LIB\C51S.LIB (?C?OFFXADD)
  E:\KEIL\C51\LIB\C51S.LIB (?C?CCASE)
  E:\KEIL\C51\LIB\C51S.LIB (?C_INIT)
  E:\KEIL\C51\LIB\C51S.LIB (?C?UIDIV)


LINK MAP OF MODULE:  yy (YY)


            TYPE    BASE      LENGTH    RELOCATION   SEGMENT NAME
            -----------------------------------------------------

            * * * * * * *   D A T A   M E M O R Y   * * * * * * *
            REG     0000H     0008H     ABSOLUTE     "REG BANK 0"
            DATA    0008H     000AH     UNIT         ?DT?YY
            DATA    0012H     0003H     UNIT         ?DT?_UART_SEND_STR?YY
            IDATA   0015H     0001H     UNIT         ?STACK

            * * * * * * *   C O D E   M E M O R Y   * * * * * * *
            CODE    0000H     0003H     ABSOLUTE     
            CODE    0003H     0008H     UNIT         ?PR?INIT_TIMER0?YY
            CODE    000BH     0003H     ABSOLUTE     
            CODE    000EH     0012H     UNIT         ?C_INITSEG
                    0020H     0003H                  *** GAP ***
            CODE    0023H     0003H     ABSOLUTE     
            CODE    0026H     0330H     UNIT         ?CO?YY
            CODE    0356H     00EAH     UNIT         ?C?LIB_CODE
            CODE    0440H     00E7H     UNIT         ?PR?MAIN?YY
            CODE    0527H     00D4H     UNIT         ?PR?RX_INT?YY
            CODE    05FBH     008CH     UNIT         ?C_C51STARTUP
            CODE    0687H     0024H     UNIT         ?PR?_UART_SEND_STR?YY
            CODE    06ABH     0021H     UNIT         ?PR?_UART_SEND?YY
            CODE    06CCH     0020H     UNIT         ?PR?_UART_SEND_CHAR?YY
            CODE    06ECH     001AH     UNIT         ?PR?_DELAY?YY
            CODE    0706H     0019H     UNIT         ?PR?UART_INIT?YY
            CODE    071FH     0009H     UNIT         ?PR?TIMER0_ISR?YY



OVERLAY MAP OF MODULE:   yy (YY)


SEGMENT
  +--> CALLED SEGMENT
---------------------
?C_C51STARTUP
BL51 BANKED LINKER/LOCATER V6.00                                                      06/17/2020  17:43:52  PAGE 2


  +--> ?PR?MAIN?YY
  +--> ?C_INITSEG

?PR?MAIN?YY
  +--> ?PR?INIT_TIMER0?YY
  +--> ?PR?UART_INIT?YY
  +--> ?CO?YY
  +--> ?PR?_DELAY?YY



SYMBOL TABLE OF MODULE:  yy (YY)

  VALUE           TYPE          NAME
  ----------------------------------

  -------         MODULE        YY
  C:0000H         SYMBOL        _ICE_DUMMY_
  D:0090H         PUBLIC        P1
  D:0008H         PUBLIC        High
  D:00B0H         PUBLIC        P3
  B:00A8H.7       PUBLIC        EA
  D:00A8H         PUBLIC        IE
  B:00A8H.4       PUBLIC        ES
  C:0036H         PUBLIC        Song
  D:00B8H         PUBLIC        IP
  D:0009H         PUBLIC        which_music
  B:0098H.0       PUBLIC        RI
  B:0098H.1       PUBLIC        TI
  D:000BH         PUBLIC        order
  C:01C6H         PUBLIC        Len
  C:0440H         PUBLIC        main
  C:0003H         PUBLIC        Init_Timer0
  C:06ABH         PUBLIC        _uart_send
  C:06E0H         PUBLIC        _uart_send_char
  C:0026H         PUBLIC        freq
  D:0099H         PUBLIC        SBUF
  D:000CH         PUBLIC        Low
  D:0098H         PUBLIC        SCON
  D:0089H         PUBLIC        TMOD
  D:0088H         PUBLIC        TCON
  D:000DH         PUBLIC        tone_value
  D:000EH         PUBLIC        stop_flag
  B:00A8H.1       PUBLIC        ET0
  D:008CH         PUBLIC        TH0
  D:008DH         PUBLIC        TH1
  B:0098H.7       PUBLIC        SM0
  D:008AH         PUBLIC        TL0
  D:000FH         PUBLIC        play_tone
  B:0098H.6       PUBLIC        SM1
  D:008BH         PUBLIC        TL1
  C:0706H         PUBLIC        uart_init
  B:0088H.4       PUBLIC        TR0
  C:0527H         PUBLIC        RX_int
  B:0088H.6       PUBLIC        TR1
  C:071FH         PUBLIC        Timer0_isr
  B:0098H.4       PUBLIC        REN
BL51 BANKED LINKER/LOCATER V6.00                                                      06/17/2020  17:43:52  PAGE 3


  C:0687H         PUBLIC        _uart_send_str
  D:00C8H         PUBLIC        T2CON
  D:0010H         PUBLIC        tone_num
  B:00B0H.7       PUBLIC        SPK
  C:06F0H         PUBLIC        _delay
  D:00D0H         PUBLIC        PSW
  -------         PROC          UART_INIT
  C:0706H         LINE#         18
  C:0706H         LINE#         19
  C:0706H         LINE#         20
  C:0709H         LINE#         21
  C:070CH         LINE#         22
  C:070FH         LINE#         23
  C:0712H         LINE#         24
  C:0714H         LINE#         26
  C:0716H         LINE#         27
  C:0718H         LINE#         28
  C:071AH         LINE#         29
  C:071CH         LINE#         30
  C:071EH         LINE#         31
  -------         ENDPROC       UART_INIT
  C:06D2H         SYMBOL        L?0056
  C:06D5H         SYMBOL        L?0057
  -------         PROC          L?0055
  -------         ENDPROC       L?0055
  C:06D2H         SYMBOL        L?0056
  C:06D5H         SYMBOL        L?0057
  -------         PROC          _UART_SEND_CHAR
  D:0007H         SYMBOL        i
  C:06E0H         LINE#         32
  C:06E0H         LINE#         33
  C:06E0H         LINE#         34
  C:06E2H         LINE#         35
  C:06E4H         LINE#         36
  C:06E7H         LINE#         37
  C:06E9H         LINE#         38
  C:06EBH         LINE#         39
  -------         ENDPROC       _UART_SEND_CHAR
  -------         PROC          _UART_SEND_STR
  D:0012H         SYMBOL        zifu
  -------         DO            
  D:0004H         SYMBOL        i
  -------         ENDDO         
  C:0687H         LINE#         40
  C:068DH         LINE#         41
  C:068DH         LINE#         42
  C:0690H         LINE#         43
  C:06A0H         LINE#         44
  C:06A0H         LINE#         45
  C:06A3H         LINE#         46
  C:06A8H         LINE#         47
  C:06AAH         LINE#         48
  -------         ENDPROC       _UART_SEND_STR
  -------         PROC          _UART_SEND
  D:0002H         SYMBOL        num
  C:06ABH         LINE#         49
  C:06AFH         LINE#         50
BL51 BANKED LINKER/LOCATER V6.00                                                      06/17/2020  17:43:52  PAGE 4


  C:06AFH         LINE#         52
  C:06B6H         LINE#         53
  C:06BBH         LINE#         54
  C:06C0H         LINE#         55
  C:06C7H         LINE#         56
  -------         ENDPROC       _UART_SEND
  C:06ECH         SYMBOL        L?0059
  -------         PROC          L?0058
  -------         ENDPROC       L?0058
  C:06ECH         SYMBOL        L?0059
  -------         PROC          _DELAY
  D:0006H         SYMBOL        ms
  -------         DO            
  D:0005H         SYMBOL        i
  -------         ENDDO         
  C:06F0H         LINE#         37
  C:06F0H         LINE#         38
  C:06F0H         LINE#         40
  C:06FAH         LINE#         41
  C:06FAH         LINE#         42
  C:0705H         LINE#         43
  C:0705H         LINE#         44
  -------         ENDPROC       _DELAY
  -------         PROC          MAIN
  C:0440H         LINE#         59
  C:0440H         LINE#         60
  C:0440H         LINE#         61
  C:0443H         LINE#         62
  C:0446H         LINE#         63
  C:0448H         LINE#         66
  C:0448H         LINE#         67
  C:0448H         LINE#         68
  C:044EH         LINE#         69
  C:0451H         LINE#         71
  C:0455H         LINE#         72
  C:046FH         LINE#         73
  C:047DH         LINE#         74
  C:047FH         LINE#         75
  C:0482H         LINE#         76
  C:0484H         LINE#         77
  C:0486H         LINE#         78
  C:0489H         LINE#         79
  C:0489H         LINE#         80
  C:048BH         LINE#         81
  C:048BH         LINE#         82
  C:04B0H         LINE#         83
  C:04B3H         LINE#         84
  C:04B3H         LINE#         85
  C:04B5H         LINE#         86
  C:04B7H         LINE#         87
  C:04B9H         LINE#         89
  C:04B9H         LINE#         90
  C:04D5H         LINE#         91
  C:04E3H         LINE#         92
  C:04E5H         LINE#         93
  C:050EH         LINE#         94
  C:0516H         LINE#         95
BL51 BANKED LINKER/LOCATER V6.00                                                      06/17/2020  17:43:52  PAGE 5


  C:0516H         LINE#         96
  C:0519H         LINE#         97
  C:051BH         LINE#         98
  C:051DH         LINE#         99
  C:0524H         LINE#         102
  C:0524H         LINE#         103
  -------         ENDPROC       MAIN
  -------         PROC          RX_INT
  C:0527H         LINE#         105
  C:0534H         LINE#         107
  C:053AH         LINE#         108
  C:053AH         LINE#         109
  C:053CH         LINE#         110
  C:053FH         LINE#         111
  C:0541H         LINE#         112
  C:054EH         LINE#         113
  C:0551H         LINE#         114
  C:0557H         LINE#         115
  C:055AH         LINE#         116
  C:057EH         LINE#         126
  C:0589H         LINE#         127
  C:0594H         LINE#         128
  C:059FH         LINE#         129
  C:059FH         LINE#         131
  C:05ADH         LINE#         132
  C:05C7H         LINE#         133
  C:05E8H         LINE#         134
  C:05EDH         LINE#         135
  C:05F0H         LINE#         137
  C:05F0H         LINE#         138
  C:05F0H         LINE#         140
  C:05F0H         LINE#         141
  -------         ENDPROC       RX_INT
  -------         PROC          INIT_TIMER0
  C:0003H         LINE#         146
  C:0003H         LINE#         147
  C:0003H         LINE#         148
  C:0006H         LINE#         149
  C:0008H         LINE#         150
  C:000AH         LINE#         152
  -------         ENDPROC       INIT_TIMER0
  -------         PROC          TIMER0_ISR
  C:071FH         LINE#         153
  C:071FH         LINE#         155
  C:0722H         LINE#         156
  C:0725H         LINE#         157
  C:0727H         LINE#         158
  -------         ENDPROC       TIMER0_ISR
  -------         ENDMOD        YY

  -------         MODULE        ?C?CLDOPTR
  C:0356H         PUBLIC        ?C?CLDOPTR
  -------         ENDMOD        ?C?CLDOPTR

  -------         MODULE        ?C?SIDIV
  C:0383H         PUBLIC        ?C?SIDIV
  -------         ENDMOD        ?C?SIDIV
BL51 BANKED LINKER/LOCATER V6.00                                                      06/17/2020  17:43:52  PAGE 6



  -------         MODULE        ?C?OFFXADD
  C:03B9H         PUBLIC        ?C?OFFXADD
  -------         ENDMOD        ?C?OFFXADD

  -------         MODULE        ?C?CCASE
  C:03C5H         PUBLIC        ?C?CCASE
  -------         ENDMOD        ?C?CCASE

  -------         MODULE        ?C?UIDIV
  C:03EBH         PUBLIC        ?C?UIDIV
  -------         ENDMOD        ?C?UIDIV

*** WARNING L16: UNCALLED SEGMENT, IGNORED FOR OVERLAY PROCESS
    SEGMENT: ?PR?_UART_SEND_STR?YY

*** WARNING L16: UNCALLED SEGMENT, IGNORED FOR OVERLAY PROCESS
    SEGMENT: ?PR?_UART_SEND?YY

Program Size: data=22.0 xdata=0 code=1829
LINK/LOCATE RUN COMPLETE.  2 WARNING(S),  0 ERROR(S)
