:10019B00000100030007000F001F003F007F00FF5E
:0401AB000208000046
:1000FB00E50925E0FFE508338F82F583120141FF07
:10010B00AEF030E00ED2C6309003F59022EF54FEE5
:10011B00F59022C2C6E50925E0FFE5083320900AD9
:10012B008F82F583120141F590228F82F5831201A4
:06013B00414401F5902291
:100179007DC47C09AB07AA06D3EB9400EA9400403E
:1001890007EB1B70F31A80F0ED1D70011CED4C702C
:01019900E382
:01019A002242
:10008F00D29075BBFF7594FFE4F5937592FEF591D1
:10009F0075B440F5B3F5B0F5A07F64FE1201797524
:1000AF0080F07590F07F587E02120179E4F508F523
:1000BF0009F590F5807F2C1E120179E4F508F509FA
:1000CF007F1E7E001201797BFF7A01799B1200FB64
:1000DF000509E50970020508C39408E50894004076
:0C00EF00DF7F587E02120179E4FEFF2240
:03000000020003F8
:0C000300787FE4F6D8FD75810902004A00
:10014100BB0110E58229F582E5833AF583E0F5F0FC
:10015100A3E0225009E92582F886F008E622BBFED9
:100161000AE92582F8E2F5F008E222E5832AF5831F
:08017100E993F5F0A3E99322E4
:10000F0002008FE493A3F8E493A34003F68001F278
:10001F0008DFF48029E493A3F85407240CC8C333F2
:10002F00C4540F4420C8834004F456800146F6DFC1
:10003F00E4800B01020408102040809001ABE47EA5
:10004F00019360BCA3FF543F30E509541FFEE493B6
:10005F00A360010ECF54C025E060A840B8E493A37D
:10006F00FAE493A3F8E493A3C8C582C8CAC583CAA8
:10007F00F0A3C8C582C8CAC583CADFE9DEE780BE60
:0101AF00004F
:00000001FF
