:1000030000000000000000000000000000000000ED
:1000130000FE003F00000020000000200000002040
:10002300000000200000002000000020000000204D
:1000330000000000000000000000000000F8000FB6
:100043000004001000020020000200200002002033
:10005300000200200004001000F8000F0000000060
:10006300000000000000000000FE00070000000880
:10007300000000100000002000000020000000101D
:100083000000000800FE0007000000000000000060
:100093000000000000FE003F0082002000820020DC
:1000A30000820020008200200082002000820020C5
:1000B300008200200000000000000000000000009B
:1000C3000078000000FC000000FE000100FE0003B9
:1000D30000FE000700FE000F00FE001F00FC003FB3
:1000E30000F8007F00FC003F00FE001F00FE000F31
:1000F30000FE000700FE000300FE000100FC0000FC
:100103000078000000000000000000000000000074
:1001130000000000000000000000000000000000DC
:1001230000000000000000000000000000000000CC
:1001330000000000000000000000000000000000BC
:1001430000000000000000000000000000C00001EB
:100153000040000100C0000100000000000000009A
:1001630000F0000F00080010000400200000000051
:100173000000000000F0003F000800000004000041
:1001830000040000000400000008000000F0003F2D
:10019300000000000000000000000020000000201C
:1001A30000000020000000200000002000000000EC
:1001B3000000000000F0003F000800000004000001
:1001C30000040000000400000008000000F0003FED
:1001D30000000000000000000004002000080010E0
:1001E30000F0000F000000000000000000C000014C
:1001F3000040000100C000010000000000000000FA
:10020300000400100034000800C4000600040001CC
:1002130000C40082003C008C00200040001000302D
:10022300000F000C00E800030008000C0008001099
:1002330000280060001800C000000040000000001B
:1002430000400000004200400044002000C8001F9E
:100253000000002000FC00470004004200020041AF
:100263000082004000FC007F0004004000040042C4
:100273000004004400FE00630004002000000000AE
:10028300004000000020000000F800FF000700000D
:100293000004008000F4004300140045001400290A
:1002A3000014001900FF001700140021001400219E
:1002B3000014004100F600C30004004000000000E9
:1002C300000000800000006000FE001F002200020A
:1002D30000220002002200020022000200FE007F32
:1002E30000220002002200020022004200220082BB
:1002F30000FF007F0002000000000000000000007B
:1003030000080001008800000049000000EE00FF23
:1003130000580000008800000000000000F8001FE3
:10032300008800080088000800FF00FF008800081C
:100333000088000800FC001F000800000000000007
:100343000040000000400000004400000044003E64
:100353000064001200540012004C00120047001207
:10036300004C003F005400420074008000C6007F30
:100373000044000000600000004000000000000096
:10038300000000400000003000FE008F004A0080A3
:1003930000AA005F009A004A00FE002A00AA001A81
:1003A30000CB000F00AA007A00FE008A009A00AA80
:1003B30000AA008F006B0080002200E00000000014
:1003C3000080002000C0003000A000280098002416
:1003D300008700220080002100C400300004006078
:1003E300000400000004002000040040000400801A
:1003F3000004004000FE003F000400000000000075
:1004030000100002001000420010008100FF007F76
:10041300009000040054000500CC00F400B4004434
:100423000084004400BC007F0082004400A200441A
:10043300009B00F40082000600000004000000009E
:1004430000100002001000420010008100FF007F36
:10045300009000040054000500CC00F400B40044F4
:100463000084004400BC007F0082004400A20044DA
:10047300009B00F40082000600000004000000005E
:10048300001000040010000300D0000000FF00FF74
:1004930000900000005400050044001200D4001531
:1004A30000740014005F00FF00D400140054001512
:1004B3000056001200440006004000020000000045
:1004C3000000000000000000000000000000000029
:1004D3000000000000000000007C001000FE003B54
:1004E30000FE003B007C0010000000000000000044
:1004F30000000000000000000000000000000000F9
:0808C100021000000212000009
:10089D00E4FDFCD3ED9FEC9E50070DBD00010C80D7
:0108AD00F258
:0108AE002227
:10050300751400751504751800751908751A0075AA
:100513001B04750800750903750A00750B02750C39
:0E05230000750D03750E00750F0CD2B2D2B725
:1005310020B71E7FE87E0312089D20B7110511E543
:100541001170020510E4F512F513F516F51730B721
:10055100FDE51B24FFFFE51A34FFFED3E5119FE5FE
:10056100109E4005E4F510F51130B2030207A50510
:1005710013E513700205127F887E1312089DE4F5BE
:100581001EF51FE515C4F8540FC868FFE514C454DF
:10059100F048FEC3E51F9FE51E9E40030207A5E547
:1005A10010600302071BE51114606B14700302064F
:1005B1006F1470030206C62403600302071BE515CE
:1005C100AE147805C333CE33CED8F9FFAC16AD17D0
:1005D1001208AFAC06AD07E51F25E0FFE51E33FEAF
:1005E100ED2FFFEC3EFEEF25E0FFEE33FE74032F0F
:1005F100F58274003EF583740193F4F58074052F40
:10060100F58274003EF583740193F4F5A085081C0E
:1006110085091D02071BE515AE147805C333CE33DA
:10062100CED8F9FFAC16AD171208AFAC06AD07E591
:100631001F25E0FFE51E33FEED2FFFEC3EFEEF250B
:10064100E0FFEE33FE74C32FF58274003EF5837430
:100651000193F4F58074C52FF58274003EF583741F
:100661000193F4F5A0850A1C850B1D02071BE515F6
:10067100AE147805C333CE33CED8F9FFAC16AD171F
:100681001208AFAC06AD07E51F25E0FFE51E33FEFE
:10069100ED2FFFEC3EFEEF25E0FFEE33FE74432F1E
:1006A100F58274013EF583740193F4F58074452F4E
:1006B100F58274013EF583740193F4F5A0850C1C59
:1006C100850D1D8055E515AE147805C333CE33CEA7
:1006D100D8F9FFAC16AD171208AFAC06AD07E51F90
:1006E10025E0FFE51E33FEED2FFFEC3EFEEF25E09A
:1006F100FFEE33FE74032FF58274023EF58374011D
:1007010093F4F58074052FF58274023EF58374012C
:1007110093F4F5A0850E1C850F1D7F647E001208E1
:100721009DE515AE147805C333CE33CED8F9FFACB1
:1007310016AD171208AFAC06AD07E51F25E0FFE5C2
:100741001E33FEED2FFFEC3ECF2402FDE43FFCE51E
:100751001DAE1C7805C333CE33CED8F9B5053AECBE
:10076100B50636E515C4F8540FC868FFE514C4543E
:10077100F048FEEF24FFF51FEE34FFF51EE51924C6
:10078100FFFFE51834FFFED3E5139FE5129E4009F4
:10079100E4F512F513F516F517051FE51F700205AF
:1007A1001E020584E515AE147805C333CE33CED8C9
:1007B100F9FFAC16AD171208AFAC06AD07E51F2562
:1007C100E0FFE51E33FEED2FFFEC3ECF2402FDE4FA
:1007D1003FFCE51DAE1C7805C333CE33CED8F9FFFF
:1007E100C3ED9FEC9E4003020531E51924FFFFE5AF
:1007F1001834FFFED3E5139FE5129E500302053125
:0D080100E4F512F5130517E5177002051652
:03080E00020531AF
:03000000020811E2
:0C081100787FE4F6D8FD75811F020858BE
:1008AF00EF8DF0A4A8F0CF8CF0A428CE8DF0A42E5D
:0208BF00FE2217
:10081D00020503E493A3F8E493A34003F68001F2E9
:10082D0008DFF48029E493A3F85407240CC8C333DC
:10083D00C4540F4420C8834004F456800146F6DFAB
:10084D00E4800B01020408102040809008C1E47E72
:10085D00019360BCA3FF543F30E509541FFEE493A0
:10086D00A360010ECF54C025E060A840B8E493A367
:10087D00FAE493A3F8E493A3C8C582C8CAC583CA92
:10088D00F0A3C8C582C8CAC583CADFE9DEE780BE4A
:0108C900002E
:00000001FF
