:03000000020FC725
:0C0FC700787FE4F6D8FD75810F02100E53
:10186500FEFDFBF7EFDFBF7F7FBFDFEFF7FBFDFE81
:10187500FEFCF8F0E0C080007F3F1F0F070301006A
:10188500000103070F1F3F7FFF0080C0E0F0F8FC59
:10189500FEFFFEFCFAF6EEDEBE7E7F3F5F6F777BD6
:0218A5007D7E46
:081C920002080046020C0000EC
:101AB100E50A90187593F58090187DE50A93F5B0C5
:041AC1007F647E00C0
:101AC500D3EF9400EE940040147D6E7C00ED1D7004
:0D1AD500011CED4C70F7EF1F70E61E80E362
:011AE20022E1
:0B1C7C001216A8C374149FFFE49EFE24
:0B1C8700EF1FAC0670011E4C70F6222F
:0A1B7200121C3B75A0FF7F0A7E00E5
:101B7C00E4FDFCC3ED9FEC9E5015E4FBFA0BBB009F
:0F1B8C00010AEB647B4A70F50DBD00010C80E48B
:011B9B002227
:101B1400E4F50AE4F580F5A0F5B0F5907F2C7E019C
:101B2400121AC57580FF75A0FF75B0FF7590FF7F11
:101B34002C7E01121AC5050AE50AC3940340D42277
:10152B00E4F50AE50A90186D93F5A0121AC1050AA5
:10153B00E50AC3940840EC75A0FFE4F50A90186D1A
:10154B00121ABC050AE50AC3940840F175B0FFE412
:10155B00F50AE50A90186D93F590121AC1050AE584
:10156B000AC3940840EC7590FFE4F50AE50A90185D
:10157B006593F580121AC1050AE50AC3940840EC7D
:04158B007580FF2246
:1013F900E4F50AE50A90186D93F580121AC1050AF9
:10140900E50AC3940840EC7580FFE4F50AE50A9003
:10141900186593F590121AC1050AE50AC3940840A4
:10142900EC7590FFE4F50AE50A901865121ABE05F5
:101439000AE50AC3940840EF75B0FFE4F50AE50A26
:1014490090186593F5A0121AC1050AE50AC3940814
:0614590040EC75A0FF222B
:10179700E4F50AE50A90186D93F580F590F5A0E554
:1017A7000A901865121ABE050AE50AC3940840E3B1
:1017B700E4F50AE50A90186593F580F590F5A0E53C
:1017C7000A90186D121ABE050AE50AC3940840E389
:0717D70075B0FF7580FF22D1
:1017DE00E4F50AE50A90186D93F5A0F590121AC17A
:1017EE00050AE50AC3940840EA75A0FF7590FFE468
:1017FE00F50AE50A90186D93F5B0E50A9018659311
:10180E00F580121AC1050AE50AC3940840E475B0C2
:05181E00FF7580FF22B0
:10182300E4F50AE50A90186D93F580E50A901865CA
:10183300121ABE050AE50AC3940840E77580FF75CE
:10184300B0FFE4F50AE50A90186593F590F5A01248
:101853001AC1050AE50AC3940840EA7590FF75A00A
:02186300FF2262
:1018E600E4F50AE50A90187D93F580F5A0121AC171
:1018F600050AE50AC3940840EA7580FF75A0FFE46F
:10190600F50AE50A90187593F590121AB9050AE5D5
:0D1916000AC3940840EC7590FF75B0FF22E5
:101A1200E4F50AE50A90187D93F590E50A901875A9
:101A2200121ABE050AE50AC3940840E7E4F50AE57E
:101A32000A90187593F580F5A0121AC1050AE50AF5
:061A4200C3940840EA22F3
:10132B00E4F50BE4F50AE50A90186D93F580E50AF0
:10133B0090186593F5A0F590121ABF050AE50AC33C
:10134B00940840E27580FF75A0FF7590FF75B0FFA4
:10135B00E4F50AE50A90186D93F580E50A90186597
:10136B0093F5A0F590121ABF050AE50AC39408403D
:10137B00E27580FF75A0FF7590FF75B0FF050BE55B
:07138B000BC39402409D22F8
:101B9C00E4F50AE50A90187D93F580E50A9018752E
:101BAC0093F5A0F590121ABF050AE50AC3940840F4
:081BBC00E27FF47E01021AC56C
:061B440012132B121B9C82
:101B4A00E4F50AE50A90188E93F580E50A9018855F
:101B5A0093F5A0F590121ABF050AE50AC394094045
:081B6A00E27F2C7E01021AC586
:10139200E4F50BE4F50AE50A90186593F580E50A91
:1013A20090186D93F5A0F590121ABF050AE50AC3CD
:1013B200940840E27580FF75A0FF7590FF75B0FF3D
:1013C200E4F50AE50A90186593F580E50A90186D30
:1013D20093F5A0F590121ABF050AE50AC3940840D6
:1013E200E27580FF75A0FF7590FF75B0FF050BE5F4
:0713F2000BC39402409D2291
:101BC400E4F50AE50A90187593F580E50A90187D06
:101BD40093F5A0F590121ABF050AE50AC3940840CC
:081BE400E27FE87E03021AC54E
:101BEC00E4F50AE50A90188593F580E50A90188EBD
:101BFC0093F5A0F590121ABF050AE50AC3940940A3
:081C0C00E27F2C7E01021AC5E3
:101C6000E4F50AE50A90187593F580F590F5A01251
:0C1C70001AB9050AE50AC3940840E822EE
:101C1400E4F50AE50A90188E93F580F590F5A0E5B1
:101C24000A901885121ABE050AE50AC3940940E30E
:071C34007F2C7E01021AC59E
:100E8F00E4F50A7580AA7590AA75A0AA75B0AA1282
:100E9F001AC16380FF6390FF63A0FF63B0FF121A54
:100EAF00C1050AE50AC3940540D9E4F50A7580AA7D
:100EBF007590AA75A0AA75B0AA7FC87E00121AC530
:100ECF006380FF6390FF63A0FF63B0FF7FC87E0066
:100EDF00121AC5050AE50AC3940540D1E4F50A754F
:100EEF0080AA7590AA75A0AA75B0AA7F2C7E011250
:100EFF001AC56380FF6390FF63A0FF63B0FF7F2C71
:100F0F007E01121AC5050AE50AC3940540D1758002
:100F1F00FF75A0FF7590FF75B0FF7F2C7E01021A41
:010F2F00C5FC
:100C0700E4F50AE50A90187D93F580121AC1050AE2
:100C1700E50AC3940840ECE4F50AE50A90187593D1
:100C2700F590121AC1050AE50AC3940840ECE4F5E9
:100C37000AE50A901875121ABE050AE50AC3940850
:100C470040EFE4F50AE50A90187593F5A0121AC16A
:100C5700050AE50AC3940840EC7580FF7590FF7597
:100C6700B0FF75A0FFE4F50AE50A90187D93F580BB
:100C77007F327E00121AC5050AE50AC3940840E8C8
:100C8700E4F50AE50A90187593F5907F327E001215
:100C97001AC5050AE50AC3940840E8E4F50AE50A17
:100CA70090187593F5B07F327E00121AC5050AE5D4
:100CB7000AC3940840E8E4F50AE50A90187593F525
:100CC700A07F327E00121AC5050AE50AC3940840C0
:0E0CD700E87580FF7590FF75B0FF75A0FF22D5
:10145F00E4F50AE50A90187D93F580121AC1050A82
:10146F00E50AC3940840EC7580FFE4F50AE50A909D
:10147F00187593F590121AC1050AE50AC39408402E
:10148F00EC7590FFE4F50AE50A901875121ABE057F
:10149F000AE50AC3940840EF75B0FFE4F50AE50AC0
:1014AF0090187593F5A0121AC1050AE50AC394089E
:0614BF0040EC75A0FF22C5
:100CE500E4F50AE50A90187D93F5A0121AC1050AE4
:100CF500E50AC3940840ECE4F50A121AB9050AE5B9
:100D05000AC3940840F4E4F50AE50A90187D93F5C2
:100D150090121AC1050AE50AC3940840ECE4F50AE5
:100D2500E50A90187593F580121AC1050AE50AC3FC
:100D3500940840EC7580FF7590FF75B0FF75A0FFB6
:100D4500E4F50AE50A90187D93F5A07F327E00123E
:100D55001AC5050AE50AC3940840E8E4F50AE50A58
:100D650090187D93F5B07F327E00121AC5050AE50D
:100D75000AC3940840E8E4F50AE50A90187D93F55E
:100D8500907F327E00121AC5050AE50AC394084011
:100D9500E8E4F50AE50A90187593F5807F327E0040
:100DA500121AC5050AE50AC3940840E87580FF755F
:090DB50090FF75B0FF75A0FF224C
:10158F00E4F50AE50A90187D93F5A0121AC1050A31
:10159F00E50AC3940840EC75A0FFE4F50A121AB9E6
:1015AF00050AE50AC3940840F475B0FFE4F50AE5AF
:1015BF000A90187D93F590121AC1050AE50AC39493
:1015CF000840EC7590FFE4F50AE50A90187593F55D
:1015DF0080121AC1050AE50AC3940840EC7580FF12
:0115EF0022D9
:1011DF00E4F50AE50A90186D93F580F5A0121AC18F
:1011EF00050AE50AC3940840EA7580FF75A0FFE47D
:1011FF00F50AE50A90186593F590E50A90186D12B7
:10120F001ABE050AE50AC3940840E7E4F50AE50AA1
:10121F0090186D93F590E50A901865121ABE050A9D
:10122F00E50AC3940840E77590FF75B0FFE4F50A2F
:10123F00E50A90186593F580F5A0121AC1050AE525
:07124F000AC3940840EA22E3
:1009D200E4F50BE4F50AE50A90186D93F580F5A0AD
:1009E200AF09AE08121AC5050AE50AC3940840E623
:1009F2007580FF75A0FFE4F50AE50A90186593F586
:100A020090E50A90186D93F5B0AF09AE08121AC5B9
:100A1200050AE50AC3940840E07590FF75B0FF74BB
:100A2200F62509F50974FF3508F508050BE50BC332
:100A32009405409FE4F50BE4F50AE50A90186D93DE
:100A4200F580F5A07F147E00121AC5050AE50AC3D7
:100A5200940840E67580FF75A0FFE4F50AE50A9068
:100A6200186593F590E50A90186D93F5B07F147EA2
:100A720000121AC5050AE50AC3940840E07590FF02
:100A820075B0FF050BE50BC3940640AB7508007506
:100A92000914E4F50BE4F50AE50A90186D93F58064
:100AA200F5A0AF09AE08121AC5050AE50AC39408F3
:100AB20040E67580FF75A0FFE4F50AE50A90186527
:100AC20093F590E50A90186D93F5B0AF09AE081250
:100AD2001AC5050AE50AC3940840E07590FF75B08F
:100AE200FF740A2509F509E43508F508050BE50B3D
:0C0AF200C3940540A07508007509462259
:101AE300E4F50AE4F580F5A07FE87E03121AC575D4
:101AF30080FF75A0FFE4F590F5B07FE87E03121A2E
:101B0300C57590FF75B0FF050AE50AC3940240D37B
:011B130022AF
:101923007590FF75B0FF7580FF75A0FFE4F50AE4BD
:10193300F580F5907FE87E03121AC57580FF7590D8
:10194300FFE4F5A0F5B07FE87E03121AC575A0FF8A
:0D19530075B0FF050AE50AC3940240D322D7
:101A7E00E4F50A7580AA7590AA75A0AA75B0AA7F1A
:101A8E00E87E03121AC56380FF6390FF63A0FF63B5
:101A9E00B0FF7FE87E03121AC5050AE50AC3940556
:031AAE0040D12202
:100F3000E4F580F590F5A0F5B0F50AE50A90186D96
:100F400093F4F580F5A07FC87E00121AC5050AE566
:100F50000AC3940840E5E4F580F5A0F50AE50A9097
:100F6000186593F4F590E50A90186D93F4F5B07F49
:100F7000C87E00121AC5050AE50AC3940840DEE4DB
:100F8000F50AE50A90186D93F4F590E50A90186556
:100F900093F4F5B07FC87E00121AC5050AE50AC3AE
:100FA000940840DEE4F590F5B0F50AE50A9018657E
:100FB00093F4F580F5A07FC87E00121AC5050AE5F6
:070FC0000AC3940840E5227A
:1016FD007580FF7590FF75A0FF75B0FFE4F50BE4E5
:10170D00F50AE50A90187D93F5A0F590121AC1051A
:10171D000AE50AC3940840EA75A0FF7590FFE4F549
:10172D000A121AB1050AE50AC3940840F47580FF40
:0D173D0075B0FF050BE50BC3940240C322FD
:10196000E4F50AE4F590F5A07580FF75B0FF7FE817
:101970007E03121AC57590FF75A0FFE4F580F5B0DF
:101980007FE87E03121AC5050AE50AC3940240D314
:0D1990007590FF75A0FF7580FF75B0FF22F8
:101163007580FF7590FF75A0FF75B0FFE4F50BE484
:10117300F50AE50A90187D93F5A0F590121AC105BA
:101183000AE50AC3940840EAE4F50AE50A90188ED2
:1011930093F5A0F590121AC1050AE50AC394094014
:1011A300EAE4F50A121AB1050AE50AC3940840F401
:1011B300E4F50AE50A90188593F580E50A90188E00
:1011C300121ABE050AE50AC3940940E7050BE50BAD
:0C11D300C39402409A7FC87E00021AC537
:10164E007580FF7590FF75A0FF75B0FFE4F50BE494
:10165E00F50AE50A90187593F5A0F590121AC105D2
:10166E000AE50AC3940840EA75A0FF7590FFE4F5F9
:10167E000AE50A90187D93F580E50A901875121AFE
:10168E00BE050AE50AC3940840E77580FF75B0FFF2
:0A169E00050BE50BC3940240B622D1
:101053007580FF7590FF75A0FF75B0FFE4F50BE495
:10106300F50AE50A90187593F5A0F590121AC105D3
:101073000AE50AC3940840EAE4F50AE50A901885EC
:1010830093F5A0F590121AC1050AE50AC394094025
:10109300EAE4F50AE50A90187D93F580E50A9018CD
:1010A30075121ABE050AE50AC3940840E7E4F50A77
:1010B300E50A90188E93F580E50A901885121ABEFA
:1010C300050AE50AC3940940E7050BE50BC394023F
:0910D300408D7FC87E00021AC5A1
:1014C500E4F50AE50A90187D93F580F5A0121AC196
:1014D500050AE50AC3940840EAE4F50AE50A901806
:1014E5007593F590121AB9050AE50AC3940840ECFC
:1014F500E4F50AE50A90188E93F590E50A901885AB
:10150500121ABE050AE50AC3940940E7E4F50AE59F
:101515000A90188593F580F5A0121AC1050AE50A07
:06152500C3940940EA2214
:10125600E4F50AE50A90187593F580F590121AC11F
:10126600050AE50AC3940840EAE4F50AE50A901877
:101276007D93F5A0E50A901875121ABE050AE50ACF
:10128600C3940840E77FF47E01121AC5E4F50AE527
:101296000A90188593FFF5A0E50A90188E93F5B08D
:1012A6008F90E50A90188593F580121AC1050AE514
:0D12B6000AC3940940D97F2C7E01021AC59D
:1012C300E4F50AE50A90187593F5A0121AB9050A10
:1012D300E50AC3940840ECE4F50AE50A90187D9307
:1012E300F580F590121AC1050AE50AC3940840EA8D
:1012F3007FF47E01121AC5E4F50AE50A90188E936D
:10130300FFF5A0E50A90188593F5B08F90E50A9054
:10131300188E93F580121AC1050AE50AC394094091
:08132300D97F2C7E01021AC5DE
:1019D900E4F50AE50A90187D93F5A0F590121AC16D
:1019E900050AE50AC3940840EAE4F50AE50A9018ED
:1019F9007D93F5B0E50A90187593F580121AC10523
:091A09000AE50AC3940840E42236
:101A4800E4F50AE50A90187D93F580E50A90187583
:101A5800121ABE050AE50AC3940840E7E4F50AE548
:101A68000A90187593F590F5A0121AC1050AE50AAF
:061A7800C3940840EA22BD
:100DBE00E4F50AE50A90186D93F580F5A0121AC1B4
:100DCE00050AE50AC3940840EA7580FF75A0FFE4A2
:100DDE00F50AE50A90186593F590E50A90186D12DC
:100DEE001ABE050AE50AC3940840E7E4F50AE50AC7
:100DFE0090189F93F590E50A901897121ABE050A5F
:100E0E00E50AC3940840E775907F75B0FEE4F50AD5
:100E1E00E50A90186593F580F5A0121AC1050AE54A
:100E2E000AC3940840EAE4F50AE50A90186D93F5B2
:100E3E0080F5A0F590E50A90186593F5B07FC87E11
:100E4E0000121AC5050AE50AC3940840DCE4F50A47
:100E5E00E50A90186593F580F590F5A0E50A9018CF
:100E6E006D93F5B07FC87E00121AC5050AE50AC358
:100E7E00940840DC7580FF7590FF75A0FF75B0FF7C
:010E8E002241
:10174A007580FF7590FF75A0FF75B0FFE4F50BE497
:10175A00F50AE50A90187D93F5A0F590121AC105CD
:10176A000AE50AC3940840EA75A0FF7590FFE4F5FC
:10177A000A121AB1050AE50AC3940840F47580FFF3
:0D178A0075B0FF050BE50BC3940240C322B0
:1015F000E4F590F5B0F50AE50A90187D93F580F5CD
:10160000A07F967E00121AC5050AE50AC394084019
:10161000E6E4F50AE50A90187D93F580F5A07F2CA5
:101620007E01121AC5050AE50AC3940840E6E4F5EE
:101630000A6380FF63A0FF7F2C7E01121AC5050A92
:0E164000E50AC3940440EA7FE87E03021AC55F
:1018A700E4F50AE50A90188593F5B0E50A90188ED5
:1018B70093F580121AC1050AE50AC3940940E47535
:1018C7000A01E50A90188593F5A0F590121AC1054B
:0F18D7000AE50AC3940940EA7F2C7E01021AC574
:10199D00E4F50AE50A90188E93F5A0F590121AC198
:1019AD00050AE50AC3940940EA750A01E50A90188B
:1019BD008593F580E50A90188E121ABE050AE50A80
:0C19CD00C3940940E77F2C7E01021AC57C
:1010DC001209D2121B1412152B1213F91217971294
:1010EC0017DE1218231218E6121A12121B14121BF6
:1010FC0044121392121BC4121BEC121C60121C140F
:10110C00120E8F120C0712145F120CE512158F12AF
:10111C0011DF1209D2121AE31215F0121923121A46
:10112C007E121B44120F301216FD12196012174A50
:10113C0012116312164E1210531214C512125612BB
:10114C000DBE121A481218A71219D912199D121293
:07115C00C31219600210DC50
:101C3B0020EC0E121B7820EC08050DE50D7002054B
:101C4B000CD3E50D9411E50C648094804006750C63
:051C5B0000750D0122DF
:10066000E4F50EF50F747D250FF5827418350EF53F
:1006700083E493F5907475250FF5827418350EF5A3
:1006800083E493F5B07FC87E00121B7C050FE50F55
:100690007002050EC39408E50E6480948040C62065
:1006A000EC1F121B7820EC19050DE50D7002050CEE
:1006B000D39411E50C64809480500302088A0208E8
:1006C00041E4F50EF50F7475250FF5827418350E9B
:1006D000F583E493F580F5A07FC87E00121B7C05AE
:1006E0000FE50F7002050EC39408E50E6480948038
:1006F00040D420EC1F121B7820EC19050DE50D707D
:1007000002050CD39411E50C648094805003020818
:100710008A0208417F887E13121B7C20EC1F121B6B
:100720007820EC19050DE50D7002050CD39411E548
:100730000C64809480500302088A0208417F887EFE
:1007400013121B7C20EC1F121B7820EC19050DE501
:100750000D7002050CD39411E50C64809480500355
:1007600002088A0208417F887E13121B7C20EC1F3E
:10077000121B7820EC19050DE50D7002050CD394C1
:1007800011E50C64809480500302088A0208417FBE
:10079000887E13121B7C20EC1F121B7820EC19059D
:1007A0000DE50D7002050CD39411E50C6480948066
:1007B000500302088A0208417F887E13121B7C20A6
:1007C000EC1E121B7820EC18050DE50D7002050CCF
:1007D000D39411E50C64809480500302088A8061F0
:1007E000E4F50EF50FAF0F7480A807088002C3135D
:1007F000D8FCF5907401A807088002C333D8FCF533
:10080000B07F057E00121B7CE4F590F5B07FC81226
:100810001B7C050FE50F7002050EC39408E50E64FE
:1008200080948040C020EC20121B7820EC1A050D2B
:10083000E50D7002050CD39411E50C6480948040A2
:1008400049750C00750D0122E4F50EF50FC3E50F97
:100850009408E50E6480948040030206F2AF0F74A2
:1008600001A807088002C333D8FCFFF5808FA07F62
:10087000057E00121B7CE4F5A0F5807FC8121B7C6E
:0A088000050FE50F70C7050E80C3D9
:01088A00224B
:100AFE00750E07750FD0E4F583F582C3E582950F69
:100B0E00E583950E5054E4F5B0F5A0F590F580C34D
:100B1E00E50F9582FFE50E9583FE7C007D64121C29
:100B2E007C75B0FF75A0FF7590FF7580FFC3E50F54
:100B3E009582FBE50E9583FA7C037DE8AF03FE12EA
:100B4E0016A8C3740A9FFDE49EFCEB2402FFE43A50
:100B5E00FE1216A8121C87A380A120EC1F121B7870
:100B6E0020EC19050DE50D7002050CD39411E50C62
:100B7E00648094805003020C06020C00E4F583F5A9
:100B8E0082C3E582950FE583950E5044E4F5B0F5EA
:100B9E00A0F590F580FC7D64AF82AE83121C7C754F
:100BAE00B0FF75A0FF7590FF7580FF7C037DE8AFE9
:100BBE0082AE831216A8C3740A9FFDE49EFCE582E2
:100BCE002403FFE43583FE1216A8121C87A380B1FE
:100BDE0030EC03020B04121B7830EC03020B0405FD
:100BEE000DE50D7002050CD39411E50C6480948014
:080BFE004006750C00750D01A5
:010C060022CB
:10038C00E4F50EF50FF50EF50F747D250FF582745F
:10039C0018350EF583E493F5807F967E00121B7C56
:1003AC00050FE50F7002050EC39408E50E648094EA
:1003BC008040D6E4F50EF50F7475250FF582741890
:1003CC00350EF583E493F5907F967E00121B7C0529
:1003DC000FE50F7002050EC39408E50E648094803F
:1003EC0040D620EC1F121B7820EC19050DE50D7082
:1003FC0002050CD39411E50C648094805003020622
:10040C005F0205E5E4F50EF50F7475250FF58274A2
:10041C0018350EF583E493F5B07F967E00121B7CA5
:10042C00050FE50F7002050EC39408E50E64809469
:10043C008040D6E4F50EF50F7475250FF58274180F
:10044C00350EF583E493F5A07F967E00121B7C0598
:10045C000FE50F7002050EC39408E50E64809480BE
:10046C0040D620EC1F121B7820EC19050DE50D7001
:10047C0002050CD39411E50C6480948050030206A1
:10048C005F0205E57F887E13121B7C20EC1F121B7C
:10049C007820EC19050DE50D7002050CD39411E5CF
:1004AC000C64809480500302065F0205E57F887E11
:1004BC0013121B7C20EC1F121B7820EC19050DE588
:1004CC000D7002050CD39411E50C648094805003DC
:1004DC0002065F0205E57F887E13121B7C20EC1F51
:1004EC00121B7820EC19050DE50D7002050CD39448
:1004FC0011E50C64809480500302065F0205E57FD1
:10050C00887E13121B7C20EC1F121B7820EC190523
:10051C000DE50D7002050CD39411E50C64809480EC
:10052C00500302065F0205E57F887E13121B7C20B8
:10053C00EC1F121B7820EC19050DE50D7002050C53
:10054C00D39411E50C64809480500302065F02057D
:10055C00E5E4F50EF50FAF0F7480A807088002C311
:10056C0013D8FCF5807F057E00121B7CE4F5807FA0
:10057C0096121B7C050FE50F7002050EC39408E55F
:10058C000E6480948040CFE4F50EF50FAF0F74012C
:10059C00A807088002C333D8FCF5907F057E0012B3
:1005AC001B7CE4F5907F96121B7C050FE50F700207
:1005BC00050EC39408E50E6480948040CF20EC2097
:1005CC00121B7820EC1A050DE50D7002050CD39466
:1005DC0011E50C64809480407A750C00750D012235
:1005EC00E4F50EF50FAF0F7401A807088002C333B2
:1005FC00D8FCF5B07F057E00121B7CE4F5B07F962D
:10060C00121B7C050FE50F7002050EC39408E50E56
:10061C006480948040CFE4F50EF50FC3E50F940889
:10062C00E50E64809480400302046EAF0F7401A841
:10063C0007088002C333D8FCF5A07F057E00121B8F
:10064C007CE4F5A07F96121B7C050FE50F70CC05A2
:03065C000E80C845
:01065F002278
:10088B00750E03750F20900000AF827480A80708C7
:10089B008002C313D8FCF5807F057E00121B7CE41D
:1008AB00F580AF0FAE0E121B7CA3E5826408458367
:1008BB0070D720EC1F121B7820EC19050DE50D707D
:1008CB0002050CD39411E50C64809480500302094B
:1008DB00D10209CBE4F583F582AF827401A8070836
:1008EB008002C333D8FCF5907F057E00121B7CE49D
:1008FB00F590AF0FAE0E121B7CA3E5826408458307
:10090B0070D720EC1F121B7820EC19050DE50D702C
:10091B0002050CD39411E50C6480948050030209FA
:10092B00D10209CBE4F583F582AF827401A80708E5
:10093B008002C333D8FCF5B07F057E00121B7CE42C
:10094B00F5B0AF0FAE0E121B7CA3E5826408458396
:10095B0070D720EC1B121B7820EC15050DE50D70E4
:10096B0002050CD39411E50C6480948040588050A0
:10097B00E4F583F582AF827401A807088002C333C4
:10098B00D8FCF5A07F057E00121B7CE4F5A0AF0F11
:10099B00AE0E121B7CA3E5826408458370D730EC46
:1009AB0003020891121B7830EC03020891050DE548
:1009BB000D7002050CD39411E50C648094804006F5
:0609CB00750C00750D0122
:0109D1002203
:10000300D2ECE4F583F58275A07F121B78A3E58219
:100013006478458370F1E4F583F582E50D64014569
:100023000C600C121B72A3E5826478458370ECE4C8
:10003300F583F582E50D6401450C6012121C3B75D6
:10004300A07F121B78A3E5826478458370E6E4F50C
:1000530083F582E50D6401450C600C121B72A3E568
:10006300826478458370ECE50D450C70031210DC57
:1000730075B0FF75A0FF7590FF7580FFD3E50D94F4
:1000830007E50C64809480501DAF0D7480A80708A9
:100093008002C313D8FCF4F5A07F207E03121B7CDF
:1000A30075A0FF02012BD3E50D940FE50C6480943A
:1000B30080501FE50D24F8FF7480A807088002C351
:1000C30013D8FCF4F5B07F207E03121B7C75B0FFC0
:1000D3008056D3E50D9417E50C64809480501FE59A
:1000E3000D24F0FF7480A807088002C313D8FCF422
:1000F300F5907F207E03121B7C7590FF802AD3E549
:100103000D941FE50C648094805020E50D24E8FFD6
:100113007401A807088002C333D8FCF4F5907F204C
:100123007E03121B7C7590FF121B7CE50C6003029F
:100133000073E50D14B41100400302007390014EE7
:1001430075F003A4C58325F0C58373020181020101
:100153008702018D0201930201990201BE0201E3AC
:1001630002020802022D02025202027702029F02D9
:1001730002C70202EB02030F0203360203611206F7
:1001830060020073120AFE02007312038C020073F2
:1001930012088B02007312152B20ECFA121B782025
:1001A300ECF4050DE50D7002050CD39411E50C6418
:1001B30080948050030200730203581213F920EC59
:1001C300FA121B7820ECF4050DE50D7002050CD333
:1001D3009411E50C64809480500302007302035869
:1001E30012179720ECFA121B7820ECF4050DE50D9D
:1001F3007002050CD39411E50C64809480500302C3
:1002030000730203581217DE20ECFA121B7820EC5D
:10021300F4050DE50D7002050CD39411E50C648013
:100223009480500302007302035812182320ECFA3F
:10023300121B7820ECF4050DE50D7002050CD39428
:1002430011E50C648094805003020073020358127A
:10025300132B20ECFA121B7820ECF4050DE50D703E
:1002630002050CD39411E50C6480948050030200C2
:1002730073020358121A481218A720ECF7121B78BE
:1002830020ECF1050DE50D7002050CD39411E50C7E
:100293006480948050030200730203581219D91228
:1002A300199D20ECF7121B7820ECF1050DE50D707C
:1002B30002050CD39411E50C648094805003020072
:1002C3007302035812139220ECFA121B7820ECF4F9
:1002D300050DE50D7002050CD39411E50C648094B3
:1002E300805003020073806D1211DF20ECFA121BA1
:1002F3007820ECF4050DE50D7002050CD39411E59F
:100303000C648094805003020073804912116312BD
:10031300199D20ECF7121B7820ECF1050DE50D700B
:1003230002050CD39411E50C648094805003020001
:1003330073802212105320ECFA121B7820ECF40580
:100343000DE50D7002050CD39411E50C64809480C7
:100353005003020073750C00750D01020073120D3A
:10036300BE20ECFA121B7820ECF4050DE50D7002AB
:10037300050CD39411E50C64809480500302007340
:09038300750C00750D01020073F8
:100FD300020003E493A3F8E493A34003F68001F231
:100FE30008DFF48029E493A3F85407240CC8C3331F
:100FF300C4540F4420C8834004F456800146F6DFEE
:10100300E4800B0102040810204080901C92E47ECF
:10101300019360BCA3FF543F30E509541FFEE493E2
:10102300A360010ECF54C025E060A840B8E493A3A9
:10103300FAE493A3F8E493A3C8C582C8CAC583CAD4
:10104300F0A3C8C582C8CAC583CADFE9DEE780BE8C
:011C9A000049
:1016A800BC000BBE0029EF8DF084FFADF022E4CC26
:1016B800F875F008EF2FFFEE33FEEC33FCEE9DECEF
:1016C800984005FCEE9DFE0FD5F0E9E4CEFD22ED35
:1016D800F8F5F0EE8420D21CFEADF075F008EF2F7F
:1016E800FFED33FD4007985006D5F0F222C398FD70
:0516F8000FD5F0EA220D
:00000001FF
