BL51 BANKED LINKER/LOCATER V6.00                                                        06/20/2020  22:32:35  PAGE 1


BL51 BANKED LINKER/LOCATER V6.00, INVOKED BY:
E:\KEIL\C51\BIN\BL51.EXE Text1.obj, 18b20.obj, delay.obj TO 1 RAMSIZE (256)


MEMORY MODEL: SMALL WITH FLOATING POINT ARITHMETIC


INPUT MODULES INCLUDED:
  Text1.obj (TEXT1)
  18b20.obj (18B20)
  delay.obj (DELAY)
  E:\KEIL\C51\LIB\C51FPS.LIB (?C?FPMUL)
  E:\KEIL\C51\LIB\C51FPS.LIB (?C?FCAST)
  E:\KEIL\C51\LIB\C51FPS.LIB (?C?CASTF)
  E:\KEIL\C51\LIB\C51FPS.LIB (?C?FPGETOPN)
  E:\KEIL\C51\LIB\C51S.LIB (?C_STARTUP)
  E:\KEIL\C51\LIB\C51S.LIB (?C?CLDOPTR)
  E:\KEIL\C51\LIB\C51S.LIB (?C?UIDIV)
  E:\KEIL\C51\LIB\C51S.LIB (?C?LNEG)
  E:\KEIL\C51\LIB\C51S.LIB (?C_INIT)


LINK MAP OF MODULE:  1 (TEXT1)


            TYPE    BASE      LENGTH    RELOCATION   SEGMENT NAME
            -----------------------------------------------------

            * * * * * * *   D A T A   M E M O R Y   * * * * * * *
            REG     0000H     0008H     ABSOLUTE     "REG BANK 0"
            REG     0008H     0008H     ABSOLUTE     "REG BANK 1"
            DATA    0010H     0009H     UNIT         _DATA_GROUP_
            DATA    0019H     0003H     UNIT         ?DT?_UART_SEND_STR?TEXT1
                    001CH     0004H                  *** GAP ***
            BIT     0020H.0   0000H.1   UNIT         _BIT_GROUP_
                    0020H.1   0000H.7                *** GAP ***
            DATA    0021H     0016H     UNIT         ?DT?TEXT1
            IDATA   0037H     0001H     UNIT         ?STACK

            * * * * * * *   C O D E   M E M O R Y   * * * * * * *
            CODE    0000H     0003H     ABSOLUTE     
            CODE    0003H     0003H     UNIT         ?PR?_DELAYUS2X?DELAY
                    0006H     0005H                  *** GAP ***
            CODE    000BH     0003H     ABSOLUTE     
            CODE    000EH     036AH     UNIT         ?PR?MAIN?TEXT1
            CODE    0378H     0255H     UNIT         ?C?LIB_CODE
            CODE    05CDH     008CH     UNIT         ?C_C51STARTUP
            CODE    0659H     0087H     UNIT         ?PR?TIMER0_ISR?TEXT1
            CODE    06E0H     003CH     UNIT         ?PR?READTEMPERATURE?18B20
            CODE    071CH     0035H     UNIT         ?C_INITSEG
            CODE    0751H     002AH     UNIT         ?PR?_WRITEONECHAR?18B20
            CODE    077BH     0029H     UNIT         ?PR?READONECHAR?18B20
            CODE    07A4H     0028H     UNIT         ?PR?INIT_DS18B20?18B20
            CODE    07CCH     0024H     UNIT         ?PR?_UART_SEND_STR?TEXT1
            CODE    07F0H     0024H     UNIT         ?PR?_DELAY_MS?TEXT1
            CODE    0814H     0019H     UNIT         ?PR?UART_INIT?TEXT1
            CODE    082DH     0015H     UNIT         ?PR?_DELAYMS?DELAY
            CODE    0842H     0013H     UNIT         ?PR?_SEG_SWITCH?TEXT1
BL51 BANKED LINKER/LOCATER V6.00                                                      06/20/2020  22:32:35  PAGE 2


            CODE    0855H     0010H     UNIT         ?PR?INIT_TIMER0?TEXT1
            CODE    0865H     000CH     UNIT         ?PR?_UART_SEND_CHAR?TEXT1
            CODE    0871H     000AH     UNIT         ?CO?TEXT1



OVERLAY MAP OF MODULE:   1 (TEXT1)


SEGMENT                              BIT_GROUP          DATA_GROUP 
  +--> CALLED SEGMENT             START    LENGTH     START    LENGTH
---------------------------------------------------------------------
?PR?TIMER0_ISR?TEXT1              -----    -----      -----    -----
  +--> ?PR?_SEG_SWITCH?TEXT1

*** NEW ROOT ***************************************************

?C_C51STARTUP                     -----    -----      -----    -----
  +--> ?PR?MAIN?TEXT1
  +--> ?C_INITSEG

?PR?MAIN?TEXT1                    -----    -----      0010H    0006H
  +--> ?PR?INIT_TIMER0?TEXT1
  +--> ?PR?INIT_DS18B20?18B20
  +--> ?PR?READTEMPERATURE?18B20
  +--> ?PR?_DELAY_MS?TEXT1
  +--> ?CO?TEXT1

?PR?INIT_DS18B20?18B20            0020H.0  0000H.1    -----    -----
  +--> ?PR?_DELAYUS2X?DELAY

?PR?READTEMPERATURE?18B20         -----    -----      0016H    0001H
  +--> ?PR?INIT_DS18B20?18B20
  +--> ?PR?_WRITEONECHAR?18B20
  +--> ?PR?_DELAYMS?DELAY
  +--> ?PR?READONECHAR?18B20

?PR?_WRITEONECHAR?18B20           -----    -----      0017H    0002H
  +--> ?PR?_DELAYUS2X?DELAY

?PR?_DELAYMS?DELAY                -----    -----      -----    -----
  +--> ?PR?_DELAYUS2X?DELAY

?PR?READONECHAR?18B20             -----    -----      0017H    0002H
  +--> ?PR?_DELAYUS2X?DELAY



SYMBOL TABLE OF MODULE:  1 (TEXT1)

  VALUE           TYPE          NAME
  ----------------------------------

  -------         MODULE        TEXT1
  C:0000H         SYMBOL        _ICE_DUMMY_
  D:0021H         PUBLIC        setting_flag
  D:0080H         PUBLIC        P0
BL51 BANKED LINKER/LOCATER V6.00                                                      06/20/2020  22:32:35  PAGE 3


  D:00A0H         PUBLIC        P2
  D:00B0H         PUBLIC        P3
  B:00A8H.7       PUBLIC        EA
  D:0022H         PUBLIC        naozhong_hour
  C:0871H         PUBLIC        dofly_table
  D:0023H         PUBLIC        naozhong_min
  D:0024H         PUBLIC        jishi_5ms
  C:0842H         PUBLIC        _seg_switch
  D:0025H         PUBLIC        jishi_flag
  B:00A8H.4       PUBLIC        ES
  B:0098H.1       PUBLIC        TI
  D:0026H         PUBLIC        buzzer_flag
  B:00B0H.7       PUBLIC        buzzer
  C:000EH         PUBLIC        main
  C:0855H         PUBLIC        Init_Timer0
  C:0865H         PUBLIC        _uart_send_char
  D:0099H         PUBLIC        SBUF
  C:07F4H         PUBLIC        _delay_ms
  D:0089H         PUBLIC        TMOD
  D:0027H         PUBLIC        jishi_sec
  D:0028H         PUBLIC        sec
  D:0029H         PUBLIC        jishi_min
  D:002AH         PUBLIC        hour
  D:002BH         PUBLIC        min
  B:00A8H.1       PUBLIC        ET0
  D:008CH         PUBLIC        TH0
  D:008DH         PUBLIC        TH1
  B:00B0H.6       PUBLIC        key_jian
  B:0098H.7       PUBLIC        SM0
  D:008AH         PUBLIC        TL0
  B:0098H.6       PUBLIC        SM1
  D:008BH         PUBLIC        TL1
  B:00B0H.2       PUBLIC        key_mode
  D:002CH         PUBLIC        sec_temp
  C:0814H         PUBLIC        uart_init
  B:0088H.4       PUBLIC        TR0
  B:0088H.6       PUBLIC        TR1
  B:00B0H.3       PUBLIC        key_2
  B:00B0H.4       PUBLIC        key_3
  B:00B0H.5       PUBLIC        key_jia
  C:0659H         PUBLIC        Timer0_isr
  D:002DH         PUBLIC        seg_show
  B:0098H.4       PUBLIC        REN
  D:0035H         PUBLIC        naozhong_flag
  C:07CCH         PUBLIC        _uart_send_str
  B:00A0H.0       PUBLIC        seg1
  D:0036H         PUBLIC        seg_num
  B:00A0H.1       PUBLIC        seg2
  B:00A0H.2       PUBLIC        seg3
  -------         PROC          UART_INIT
  C:0814H         LINE#         17
  C:0814H         LINE#         18
  C:0814H         LINE#         19
  C:0817H         LINE#         20
  C:081AH         LINE#         21
  C:081DH         LINE#         22
  C:0820H         LINE#         23
BL51 BANKED LINKER/LOCATER V6.00                                                      06/20/2020  22:32:35  PAGE 4


  C:0822H         LINE#         25
  C:0824H         LINE#         26
  C:0826H         LINE#         27
  C:0828H         LINE#         28
  C:082AH         LINE#         29
  C:082CH         LINE#         30
  -------         ENDPROC       UART_INIT
  -------         PROC          _UART_SEND_CHAR
  D:0007H         SYMBOL        i
  C:0865H         LINE#         31
  C:0865H         LINE#         32
  C:0865H         LINE#         33
  C:0867H         LINE#         34
  C:0869H         LINE#         35
  C:086CH         LINE#         36
  C:086EH         LINE#         37
  C:0870H         LINE#         38
  -------         ENDPROC       _UART_SEND_CHAR
  -------         PROC          _UART_SEND_STR
  D:0019H         SYMBOL        zifu
  -------         DO            
  D:0004H         SYMBOL        i
  -------         ENDDO         
  C:07CCH         LINE#         39
  C:07D2H         LINE#         40
  C:07D2H         LINE#         41
  C:07D5H         LINE#         42
  C:07E5H         LINE#         43
  C:07E5H         LINE#         44
  C:07E8H         LINE#         45
  C:07EDH         LINE#         46
  C:07EFH         LINE#         47
  -------         ENDPROC       _UART_SEND_STR
  -------         PROC          _SEG_SWITCH
  D:0007H         SYMBOL        num
  C:0842H         LINE#         35
  C:0842H         LINE#         36
  C:084AH         LINE#         37
  C:0850H         LINE#         38
  C:0854H         LINE#         39
  -------         ENDPROC       _SEG_SWITCH
  C:07F0H         SYMBOL        L?0107
  -------         PROC          L?0106
  -------         ENDPROC       L?0106
  C:07F0H         SYMBOL        L?0107
  -------         PROC          _DELAY_MS
  D:0006H         SYMBOL        x
  -------         DO            
  D:0002H         SYMBOL        i
  D:0004H         SYMBOL        j
  -------         ENDDO         
  C:07F4H         LINE#         40
  C:07F4H         LINE#         41
  C:07F4H         LINE#         43
  C:07FEH         LINE#         44
  C:0813H         LINE#         45
  -------         ENDPROC       _DELAY_MS
BL51 BANKED LINKER/LOCATER V6.00                                                      06/20/2020  22:32:35  PAGE 5


  -------         PROC          INIT_TIMER0
  C:0855H         LINE#         46
  C:0855H         LINE#         47
  C:0855H         LINE#         48
  C:0858H         LINE#         49
  C:085BH         LINE#         50
  C:085EH         LINE#         51
  C:0860H         LINE#         52
  C:0862H         LINE#         53
  C:0864H         LINE#         54
  -------         ENDPROC       INIT_TIMER0
  -------         PROC          MAIN
  -------         DO            
  D:0010H         SYMBOL        i
  D:0002H         SYMBOL        temp
  D:0012H         SYMBOL        mode_num
  D:0013H         SYMBOL        run_times
  D:0015H         SYMBOL        wei_num
  -------         ENDDO         
  C:000EH         LINE#         61
  C:000EH         LINE#         62
  C:000EH         LINE#         65
  C:0011H         LINE#         66
  C:0015H         LINE#         67
  C:0017H         LINE#         68
  C:001AH         LINE#         69
  C:001CH         LINE#         72
  C:001FH         LINE#         73
  C:0022H         LINE#         74
  C:0025H         LINE#         75
  C:002CH         LINE#         76
  C:002CH         LINE#         77
  C:002CH         LINE#         78
  C:002FH         LINE#         79
  C:0032H         LINE#         80
  C:0035H         LINE#         81
  C:0037H         LINE#         82
  C:0041H         LINE#         84
  C:0044H         LINE#         85
  C:0047H         LINE#         86
  C:004AH         LINE#         87
  C:004AH         LINE#         88
  C:004AH         LINE#         89
  C:004DH         LINE#         90
  C:0050H         LINE#         91
  C:0053H         LINE#         92
  C:005AH         LINE#         93
  C:005FH         LINE#         94
  C:0066H         LINE#         95
  C:0066H         LINE#         96
  C:0069H         LINE#         98
  C:0069H         LINE#         99
  C:0069H         LINE#         100
  C:006CH         LINE#         101
  C:006FH         LINE#         102
  C:0072H         LINE#         103
  C:0076H         LINE#         104
BL51 BANKED LINKER/LOCATER V6.00                                                      06/20/2020  22:32:35  PAGE 6


  C:0078H         LINE#         105
  C:0082H         LINE#         106
  C:0082H         LINE#         107
  C:0087H         LINE#         108
  C:0089H         LINE#         109
  C:0093H         LINE#         110
  C:0093H         LINE#         111
  C:0098H         LINE#         112
  C:009BH         LINE#         113
  C:009DH         LINE#         114
  C:009FH         LINE#         115
  C:00A1H         LINE#         116
  C:00A1H         LINE#         118
  C:00A4H         LINE#         119
  C:00A7H         LINE#         120
  C:00A7H         LINE#         121
  C:00A7H         LINE#         122
  C:00ADH         LINE#         123
  C:00B0H         LINE#         124
  C:00B3H         LINE#         125
  C:00B7H         LINE#         126
  C:00BBH         LINE#         127
  C:00C4H         LINE#         128
  C:00C6H         LINE#         129
  C:00C6H         LINE#         130
  C:00CBH         LINE#         131
  C:00D4H         LINE#         132
  C:00D6H         LINE#         133
  C:00D6H         LINE#         134
  C:00DBH         LINE#         135
  C:00E4H         LINE#         136
  C:00E6H         LINE#         137
  C:00E6H         LINE#         138
  C:00E6H         LINE#         139
  C:00ECH         LINE#         140
  C:00F0H         LINE#         141
  C:00FCH         LINE#         142
  C:00FEH         LINE#         143
  C:00FEH         LINE#         144
  C:0103H         LINE#         145
  C:010FH         LINE#         146
  C:0111H         LINE#         147
  C:0111H         LINE#         148
  C:0116H         LINE#         149
  C:0122H         LINE#         150
  C:0124H         LINE#         151
  C:0124H         LINE#         152
  C:0124H         LINE#         153
  C:0127H         LINE#         154
  C:012AH         LINE#         155
  C:012AH         LINE#         156
  C:012AH         LINE#         157
  C:012DH         LINE#         158
  C:0130H         LINE#         159
  C:0133H         LINE#         160
  C:0137H         LINE#         161
  C:013BH         LINE#         162
BL51 BANKED LINKER/LOCATER V6.00                                                      06/20/2020  22:32:35  PAGE 7


  C:013DH         LINE#         163
  C:0147H         LINE#         164
  C:0147H         LINE#         165
  C:014CH         LINE#         166
  C:014EH         LINE#         167
  C:0158H         LINE#         168
  C:0158H         LINE#         169
  C:015DH         LINE#         170
  C:015FH         LINE#         171
  C:0169H         LINE#         172
  C:0169H         LINE#         173
  C:0169H         LINE#         174
  C:016FH         LINE#         175
  C:0173H         LINE#         176
  C:0175H         LINE#         177
  C:017FH         LINE#         178
  C:017FH         LINE#         179
  C:0184H         LINE#         180
  C:0186H         LINE#         181
  C:0190H         LINE#         182
  C:0190H         LINE#         183
  C:0195H         LINE#         184
  C:0197H         LINE#         185
  C:01A1H         LINE#         186
  C:01A1H         LINE#         187
  C:01A1H         LINE#         188
  C:01A4H         LINE#         189
  C:01A7H         LINE#         190
  C:01A7H         LINE#         191
  C:01A7H         LINE#         192
  C:01ACH         LINE#         193
  C:01BAH         LINE#         194
  C:01BCH         LINE#         195
  C:01BEH         LINE#         196
  C:01C0H         LINE#         198
  C:01C4H         LINE#         199
  C:01C7H         LINE#         200
  C:01CAH         LINE#         201
  C:01DCH         LINE#         202
  C:01E7H         LINE#         203
  C:01F6H         LINE#         204
  C:0201H         LINE#         205
  C:0210H         LINE#         206
  C:021BH         LINE#         207
  C:0227H         LINE#         208
  C:0232H         LINE#         209
  C:023DH         LINE#         210
  C:023DH         LINE#         211
  C:023DH         LINE#         213
  C:0243H         LINE#         214
  C:0246H         LINE#         215
  C:0249H         LINE#         216
  C:024CH         LINE#         217
  C:025EH         LINE#         218
  C:0269H         LINE#         219
  C:0278H         LINE#         220
  C:0283H         LINE#         222
BL51 BANKED LINKER/LOCATER V6.00                                                      06/20/2020  22:32:35  PAGE 8


  C:028EH         LINE#         223
  C:029AH         LINE#         224
  C:02A5H         LINE#         225
  C:02B0H         LINE#         226
  C:02B0H         LINE#         227
  C:02B0H         LINE#         229
  C:02B9H         LINE#         230
  C:02C1H         LINE#         231
  C:02CAH         LINE#         232
  C:02CFH         LINE#         233
  C:02EBH         LINE#         234
  C:02F4H         LINE#         235
  C:0310H         LINE#         236
  C:0329H         LINE#         237
  C:0329H         LINE#         238
  C:0329H         LINE#         239
  C:032CH         LINE#         240
  C:033EH         LINE#         241
  C:034BH         LINE#         242
  C:035AH         LINE#         243
  C:0367H         LINE#         244
  C:0372H         LINE#         245
  C:0372H         LINE#         248
  C:0375H         LINE#         249
  -------         ENDPROC       MAIN
  -------         PROC          TIMER0_ISR
  C:0659H         LINE#         252
  C:0660H         LINE#         254
  C:0663H         LINE#         255
  C:0666H         LINE#         256
  C:0668H         LINE#         257
  C:0672H         LINE#         258
  C:0675H         LINE#         259
  C:067AH         LINE#         260
  C:0682H         LINE#         263
  C:0687H         LINE#         264
  C:0689H         LINE#         265
  C:0690H         LINE#         266
  C:0693H         LINE#         267
  C:0695H         LINE#         268
  C:0695H         LINE#         269
  C:069CH         LINE#         270
  C:069FH         LINE#         271
  C:06A1H         LINE#         272
  C:06A1H         LINE#         273
  C:06A8H         LINE#         274
  C:06ABH         LINE#         275
  C:06ABH         LINE#         276
  C:06ABH         LINE#         278
  C:06ADH         LINE#         279
  C:06B4H         LINE#         280
  C:06B7H         LINE#         281
  C:06B9H         LINE#         282
  C:06B9H         LINE#         283
  C:06C0H         LINE#         284
  C:06C3H         LINE#         285
  C:06C5H         LINE#         286
BL51 BANKED LINKER/LOCATER V6.00                                                      06/20/2020  22:32:35  PAGE 9


  C:06C5H         LINE#         287
  C:06CCH         LINE#         288
  C:06CFH         LINE#         289
  C:06D1H         LINE#         290
  C:06D1H         LINE#         291
  C:06D8H         LINE#         292
  C:06DBH         LINE#         293
  C:06DBH         LINE#         294
  -------         ENDPROC       TIMER0_ISR
  -------         ENDMOD        TEXT1

  -------         MODULE        18B20
  C:0000H         SYMBOL        _ICE_DUMMY_
  D:00A0H         PUBLIC        P2
  C:0751H         PUBLIC        _WriteOneChar
  C:06E0H         PUBLIC        ReadTemperature
  B:00A0H.3       PUBLIC        DQ
  C:07A4H         PUBLIC        Init_DS18B20
  C:077BH         PUBLIC        ReadOneChar
  -------         PROC          INIT_DS18B20
  -------         DO            
  B:0020H.0       SYMBOL        dat
  -------         ENDDO         
  C:07A4H         LINE#         14
  C:07A4H         LINE#         15
  C:07A4H         LINE#         16
  C:07A6H         LINE#         17
  C:07A8H         LINE#         18
  C:07ADH         LINE#         19
  C:07AFH         LINE#         20
  C:07B4H         LINE#         21
  C:07B9H         LINE#         22
  C:07BBH         LINE#         23
  C:07C0H         LINE#         24
  C:07C4H         LINE#         25
  C:07C9H         LINE#         26
  C:07CBH         LINE#         27
  -------         ENDPROC       INIT_DS18B20
  -------         PROC          READONECHAR
  -------         DO            
  D:0017H         SYMBOL        i
  D:0018H         SYMBOL        dat
  -------         ENDDO         
  C:077BH         LINE#         32
  C:077BH         LINE#         33
  C:077BH         LINE#         34
  C:077EH         LINE#         35
  C:0780H         LINE#         36
  C:0783H         LINE#         37
  C:0783H         LINE#         38
  C:0785H         LINE#         39
  C:078BH         LINE#         40
  C:078DH         LINE#         41
  C:0790H         LINE#         42
  C:0793H         LINE#         43
  C:0798H         LINE#         44
  C:07A1H         LINE#         45
BL51 BANKED LINKER/LOCATER V6.00                                                      06/20/2020  22:32:35  PAGE 10


  C:07A3H         LINE#         46
  -------         ENDPROC       READONECHAR
  -------         PROC          _WRITEONECHAR
  D:0017H         SYMBOL        dat
  -------         DO            
  D:0018H         SYMBOL        i
  -------         ENDDO         
  C:0751H         LINE#         50
  C:0753H         LINE#         51
  C:0753H         LINE#         52
  C:0756H         LINE#         53
  C:0759H         LINE#         54
  C:0759H         LINE#         55
  C:075BH         LINE#         56
  C:0760H         LINE#         57
  C:0765H         LINE#         58
  C:0767H         LINE#         59
  C:076DH         LINE#         60
  C:0776H         LINE#         61
  -------         ENDPROC       _WRITEONECHAR
  -------         PROC          READTEMPERATURE
  -------         DO            
  D:0016H         SYMBOL        a
  D:0006H         SYMBOL        b
  D:0004H         SYMBOL        t
  -------         ENDDO         
  C:06E0H         LINE#         67
  C:06E0H         LINE#         68
  C:06E0H         LINE#         69
  C:06E3H         LINE#         70
  C:06E5H         LINE#         71
  C:06E7H         LINE#         72
  C:06EAH         LINE#         73
  C:06EFH         LINE#         74
  C:06F4H         LINE#         76
  C:06F9H         LINE#         77
  C:06FCH         LINE#         78
  C:0701H         LINE#         79
  C:0706H         LINE#         80
  C:070BH         LINE#         81
  C:070EH         LINE#         83
  C:0712H         LINE#         84
  C:0718H         LINE#         86
  C:071BH         LINE#         87
  -------         ENDPROC       READTEMPERATURE
  -------         ENDMOD        18B20

  -------         MODULE        DELAY
  C:0000H         SYMBOL        _ICE_DUMMY_
  C:082DH         PUBLIC        _DelayMs
  C:0003H         PUBLIC        _DelayUs2x
  -------         PROC          _DELAYUS2X
  D:0007H         SYMBOL        t
  C:0003H         LINE#         8
  C:0003H         LINE#         9
  C:0003H         LINE#         10
  C:0005H         LINE#         11
BL51 BANKED LINKER/LOCATER V6.00                                                      06/20/2020  22:32:35  PAGE 11


  -------         ENDPROC       _DELAYUS2X
  -------         PROC          _DELAYMS
  D:0006H         SYMBOL        t
  C:082DH         LINE#         17
  C:082FH         LINE#         18
  C:082FH         LINE#         20
  C:0835H         LINE#         21
  C:0835H         LINE#         23
  C:083AH         LINE#         24
  C:083FH         LINE#         25
  C:0841H         LINE#         26
  -------         ENDPROC       _DELAYMS
  -------         ENDMOD        DELAY

  -------         MODULE        ?C?FPMUL
  C:0378H         PUBLIC        ?C?FPMUL
  -------         ENDMOD        ?C?FPMUL

  -------         MODULE        ?C?FCAST
  C:0488H         PUBLIC        ?C?FCASTC
  C:0483H         PUBLIC        ?C?FCASTI
  C:047EH         PUBLIC        ?C?FCASTL
  -------         ENDMOD        ?C?FCAST

  -------         MODULE        ?C?CASTF
  C:04BCH         PUBLIC        ?C?CASTF
  -------         ENDMOD        ?C?CASTF

  -------         MODULE        ?C?CLDOPTR
  C:053DH         PUBLIC        ?C?CLDOPTR
  -------         ENDMOD        ?C?CLDOPTR

  -------         MODULE        ?C?UIDIV
  C:056AH         PUBLIC        ?C?UIDIV
  -------         ENDMOD        ?C?UIDIV

  -------         MODULE        ?C?LNEG
  C:05BFH         PUBLIC        ?C?LNEG
  -------         ENDMOD        ?C?LNEG

*** WARNING L16: UNCALLED SEGMENT, IGNORED FOR OVERLAY PROCESS
    SEGMENT: ?PR?UART_INIT?TEXT1

*** WARNING L16: UNCALLED SEGMENT, IGNORED FOR OVERLAY PROCESS
    SEGMENT: ?PR?_UART_SEND_STR?TEXT1

Program Size: data=51.1 xdata=0 code=2166
LINK/LOCATE RUN COMPLETE.  2 WARNING(S),  0 ERROR(S)
