:10000E007FFE3FFE1FFE0FF607F603F601B600B6A3
:10001E0000B601B603F607F60FF61FFE3FFE7FFE93
:10002E00AFFEAFFEBFFABFFAFFEAFFEAFFABFFABD0
:10003E00FEAFFEAFFABFFABFEAFFEAFFABFFABFFC0
:10004E00FFFFF0FFE07FC03FC01FC00FE007F003CF
:10005E00F003E007C00FC01FC03FE07FF0FFFFFFBF
:10006E00FF7FFFBFFFDFFFEFFFF7FFFBFFFDFFFE91
:10007E00FFFDFFFBFFF7FFEFFFDFFFBFFF7FFEFF81
:10008E00FFFFFFDFFFDFFFDFFFDFFFDFFFDFFFDF52
:10009E00FFDFFBDEFDDDFEDBFF57FF8FFFDFFFFF28
:1000AE00FBFFDBEFDBEDDBDE80013BBFBB7DFBFD52
:1000BE00FBFB0037FBCFBBD7CBBBFA7DFBE0FFFFD3
:1000CE00FFBFBFBFA8A0AAADAA2DAAADAAAD0AAD0B
:1000DE00AAADAAADAA2DAAADA8A0BFBFFFBFFFFFB4
:1000EE00DFF7DBEFDD9FDE7FD9BEC6CDFDFBF3E78D
:1000FE000F9FEC7FEF9FEFE7EBFBE7FDFFFEFFFFB0
:10010E00FF7FFEFFF9FFE0001FFFFDF7FBCFE73F8C
:10011E000FFDEFFEEC01EFFFEF7FEB9FE7E7FFFF39
:10012E00FFFFFFFFFFFF8033FFFFFFFFFFFFFFFF1C
:10013E00FFFFFFFFFFFFFFFFFFFFFFFFFFFFFFFFC1
:10014E00FFFFFFFFFFFF8033FFFFFFFFFFFFFFFFFC
:10015E00FFFFFFFFFFFFFFFFFFFFFFFFFFFFFFFFA1
:10016E00F7DFF9DF7F0098FDFFF3E00EEEFEEE7D88
:10017E00EE9B00E7EEE7EE9BEE79E7FCEFFDFFFF6F
:10018E00FF7FBF7FBF7FA143AB57AB57AB57AB577B
:10019E00A143BF7DBF7E8101BF7FBE7FFF7FFFFF7B
:1001AE00FEFFFDFFF001CBFF3DF7FBCFE63F0F7BE0
:1001BE00AFFDE803EFFFEEFFEB3FC7C7EFEFFFFF2B
:1001CE00F7FEF73DF0BB07D7F7CFF031FEFBBEFFD2
:1001DE00BEFDBEFEB001AEFF9EFFBEFFFEFFFFFFE7
:1001EE00FFFEE01DFFFBFFE7001FFFFFE007EFFF35
:1001FE00EFFFEFFF0000EFFFEFEFEFE7E00FFFFF86
:10020E00FFFFFFFFFFFFF005FFFFFFFFFFFFFFFFF9
:10021E00FFFFFFFFFFFFFFFFFFFFFFFFFFFFFFFFE0
:10022E00FFFFFFFF01C0FFDFFFDFFFDFFFDFFFDFAD
:10023E00FFDFFFDFFFFFFFFFFFFF07F0FBEFFDDF3D
:10024E00FDDFFDDFFDDFFBEF07F0FFFFFFFFFFFF31
:10025E0001F8FFF7FFEFFFDFFFDFFFEFFFF701F81A
:10026E00FFFFFFFFFFFF01C07DDF7DDF7DDF7DDF55
:10027E007DDF7DDF7DDFFFFFFFFF87FF03FF01FED9
:10028E0001FC01F801F001E003C0078003C001E0AA
:10029E0001F001F801FC01FE03FF87FFFFFFFFFFE6
:1002AE00DFFFDBF7DBB7DB7B0180DCFDDDBEDFBF15
:1002BE00DFDF00ECDFF3DDEBD3DD5FBEDF07FFFF3B
:1002CE00FFFFFFFFFFFFFFFF8FFF03FE01FC01F8A3
:1002DE0000F000E000C000C00080018003000700B5
:1002EE00070003000180008000C000C000E000F0A5
:1002FE0001F801FC03FE8FFFFFFFFFFFFFFFFFFF73
:10030E00FFFE7FFF9FFF0700F8FFBFEFDFF3E7FC65
:10031E00F0BFF77F3780F7FFF7FED7F9E7E7FFFF6C
:10032E00FFFFFFFFFFFF1FF8E7E7FBDFFDBFFFFF4C
:10033E00FFFFFFFFFEFFFEFFFEFFFEFFFEFFFEFFC5
:10034E00FEFFFEFFFEFFFEFFFEFFFEFFFEFFFFFFB6
:10035E00FFFFFFFFFBFFE3FF9BFF7BFEFBF9FBE7CE
:10036E00FBF97BFE9BFFE3FFFBFFFFFFFFFFFFFFA2
:10037E00FEFFFEFFFEFFFEFFFEFFFEFFFEFFFEFF87
:10038E00FEFFFEFFFEFFFEFFFEFFFEFFFFFFFFFF75
:10039E00FFFFFDBFFBDFE7E71FF8FFFFFFFFFFFFDC
:1003AE00FBEFDBF7BBF97BFE9B7D63B3BFDFCFE7D4
:1003BE00F0F937FEF7F9F7E7D7DFE7BFFF7FFFFF6B
:1003CE00BFFFBFBFBDDF33E0FFDFFFBF03B0FBBB2F
:1003DE00FDBDFFBF0380FBBDFBBB03BCFFBFFFFF2B
:1003EE007FFF9FFF0700F8FFFB7F1B7EDBBADBD68C
:1003FE00DBEE00D0DBBEDBBEDB7E1B7EFB7FFFFFBA
:10040E00FF7FFF9F01E0DDFDDDFDDDFDDDFD0180F8
:10041E00DDFDDDFDDDBDDD7D0180FFFFFFFFFFFFAB
:10042E00F7FDF7FE76FF110067FFFFFCFFFF07E009
:10043E0077F777F7000077F777F707E0FFFFFFFF13
:10044E00BFFFBFFFBBFFBBE19BEDABEDB3EDB8ED67
:10045E00B3E1ABBF9B7F3B80BBFFBFFFBFFFFFFF87
:10046E00FF7FFF9F0160B57F55B001B565D515E5DE
:10047E007C905545655501456510D57FBD3FFFFF05
:10048E00BFEF9FC7AFEBB3EDBCEE3FEBCFC7FBFFAC
:10049E00FBFFFBFFFBBFFB7FFBBF03C0FFFFFFFFAD
:1004AE00EFFDEFBDEF7E00806FFFFFFF6BFD9B85C5
:1004BE00BBBDABBD1D80BDBD9CBDA505FFFDFFFF3A
:1004CE00EFFDEFBDEF7E00806FFFFFFF6BFD9B85A5
:1004DE00BBBDABBD1D80BDBD9CBDA505FFFDFFFF1A
:1004EE00EFFBEFFC2FFF00006FFFEFFEBBEDABEE5F
:1004FE002BEB8BEBA000ABEB2BEBABEEBBEDFFFFD7
:10050E00FFFFFFFFFFFF01CCFFFFFFFFFFFFFFFF1E
:10051E00FFFFFFFFFFFFFFFFFFFFFFFFFFFFFFFFDD
:10052E00FFFFFFFFFFFFFFFF0000FFFFFFFFFFFFCB
:10053E007FFF7F7F7BBF7BDF7BE701F87DFF7CFF4B
:10054E007DFF7FFF00007FFF7FFF7FFF7FFFFFFFAD
:10055E00DFDDCF9853DD9CEDCFEDFFBFFDCFFD70FE
:10056E00017FFDBCFDD39DEFA5D339BCFF7FFFFFFF
:10057E00FF7F0180DFFEDFFEC000DF7FFF9F03E015
:10058E00DB7F1BBEDBD9DDE7DCD91DBEFF7FFFFFA6
:10059E00FFFFFFFFFFFFFFFF0000FFFFFFFFFFFF5B
:1005AE00F7BFF7C777FF77FF77C377BF77BF00BD7A
:1005BE0077B377BF77BF778F77FBF7F7F7CFFFFF6D
:1005CE00EFFDF3FDDBFDDBFDDBFDDBBDDA7D198031
:1005DE00DBFDDBFDDBFDDBFDDBFDEBFDF3FDFFFFFF
:1005EE00BFFFAFFFB1C1B7FDB7FD0000B7EDB7DD7F
:1005FE00B7E1BFFF07F0FFBFFF7F0080FFFFFFFFE8
:10060E00FFFE7FFF9FFF0700F8FFBFFFCFFFF0FF4A
:10061E00070077F777F777F777F7F7F7F7FFFFFF2B
:10062E00FFFFFFFFF7FFE7FFDBFF5BFFBDFEF9FEFE
:10063E00D7F98FF77FF5FFEAFFD7FFCFFFBFFFFF99
:10064E0003F0FDEFFDDFFE1FFE7FDEBF9EBF9EBFF0
:10065E005ECF5EC3DED4DED7CEDBF2DBFCDBF2DBBD
:10066E00CEDBDED7DED45EC35ECF9EDF9EDFDEDF67
:10067E00FEDFFDDFFDEF03F0FFFFFFFFFFFFFFFFDC
:10068E00FFFF7FFC1FF80FF007E007E003C003C079
:10069E00018001800180818181818181C183C3C3F9
:1006AE00C3C3E7E7E7E7EFF7FFFF3FFC1FF81FF8CD
:1006BE001FF81FF83FFCFFFFFFFF3FFC1FF81FF85E
:1006CE001FF81FF83FFCFFFFFFFF3FFC1FF81FF84E
:1006DE001FF81FF83FFCFFFFEFF7E7E7E7E7C3C39D
:1006EE00C3C3C183818181818181018001800180A9
:1006FE0003C003C007E007E00FF01FF87FFCFFFF09
:10070E00FFFFFFFFFFFFFFFFFFFFFFFFFFFFFFFFEB
:10071E00FFFFFFFFFFFFFFFFFFFFFF2020FFFFFF99
:10072E00FFF8F8FFF8F8FFFFEBFBA0EBA0EBEBFFF9
:10073E00D1D580D580D5C5FF389AC8E713591CFF8F
:10074E009966766696996FFFFFFFF8F8FFFFFFFF39
:10075E00FFFFC3BD7EFFFFFFFFFFFF7EBDC3FFFF99
:10076E00FFD5F7C1F7D5FFFFFFF7F7C1F7F7FFFF8B
:10077E00FFFF7F8FCFFFFFFFFFF7F7F7F7F7FFFFC3
:10078E00FFFFFFFFFF9F9FFFFF3F9FCFE7F3F9FFA5
:10079E00FFC3BD7E7EBDC3FFFFFF7D7D007F7FFF5C
:1007AE00FF7D3E5E6E7679FFFF6D6D6D6D6D01FFA7
:1007BE00EFE7EBED00EFEFFFFF616D6D6D6D0DFF80
:1007CE00836D767676768FFFFFFE1EEEF6FAFCFFD1
:1007DE00FF817676767681FFFF616E6E6E6E81FF9B
:1007EE00FFFF2727FFFFFFFFFF7F1393FFFFFFFF93
:1007FE00FFFFE7DBBD7EFFFFFFDBDBDBDBDBDBFFD2
:10080E00FFFF7EBDDBE7FFFFFFFDFE4EF6F9FFFFAC
:10081E00C3BD665A5A465DC33FCFD3DCD3CF3FFF2D
:10082E00FF80B6B6B6B6C9FFE3DDBEBEBEBEDDFF07
:10083E00FF80BEBEBEDDE3FFFF80B6B6B6B6BEFF1E
:10084E00FF80F6F6F6F6FEFFE3DDBEBEBEBE8DEF12
:10085E00FF80F7F7F7F780FFFFFFBE80BEFFFFFFB9
:10086E00FFDFBFBE80FEFFFFFF80F7EBDDBEBEFFEA
:10087E00FF80BFBFBFBFFFFF80FDE39FE3FD80FF93
:10088E0080FDFBF7EFDF80FFE3DDBEBEBEDDE3FFE5
:10089E00FF00EEEEEEEEF1FFE3DDBEBEAEDDA3BF7A
:1008AE00FF80F6F6E6D6B9FFFFB9B6B6B6B6CEFFFE
:1008BE00FEFEFE80FEFEFEFFFFC0BFBFBFBFC0FF3D
:1008CE00FFF0CFBFBFCFF0FFE09FE7F9E79FE0FF5C
:1008DE00BEDDEBF7EBDDBEFFF8F7EF1FEFF7F8FF2E
:1008EE00FFBE9EAEB6BABCFFFFFF007E7E7EFFFF50
:1008FE00FEFDFBF7EFDFBF7FFFFF7E7E7E00FFFF7B
:10090E00FFFBFDFEFDFBFFFF7F7F7F7F7F7F7F7FF6
:10091E00FFFFFCFCFFFFFFFFFFC7B6B6B6B681BFF9
:10092E00FF80B7B7B7B7CFFFE7DBBDBDBDFFFFFF9A
:10093E00FFCFB7B7B780FFFFFFC3B5B5B5B5F3FFB0
:10094E00FFF77701F6F5FFFFFFB176767681FFFFB1
:10095E00FF00EFF7F70FFFFFFFF7FB027FBFFFFF71
:10096E00FF3F7F7F02FFFFFFFF01DFAF77FFFFFF3C
:10097E00FFFFFF007FFFFFFF87FBFB87FBFB87FF70
:10098E00FF87FBFBFB87FFFFFFC7BBBBBBC7FFFFA1
:10099E00FF01EDEDF3FFFFFFFFF3EDED017FFFFF35
:1009AE00FFFD01F7FBFDFDFFFF736D6D6D9DFFFFFD
:1009BE00FFF7F7017777B7FFFFC1BFBFBF81BFFF5B
:1009CE00F7E7DF3FDFE7F7FFC7BFDFE7DFBFC7FFB1
:1009DE00FFBBD7EFD7BBFFFFFFBEBDDBE7FBFDFEC7
:1009EE00FFBB9BABB3BBFFFFFFEF117D7DFFFFFF97
:1009FE00FFFFFF00FFFFFFFFFFFFFF7D7D11EFFFFA
:100A0E00F7FBFBF7EFEFF7FFE7DFF7DFF7DFF79F18
:100A1E00F40FF47FF57FF1EFF3EFE3C7E7DFE79B2A
:100A2E00E73DE73DCE75CEF5CEE7CCEFCCCFCD9FF3
:100A3E00DD9FDD7FDD3FDDBFDDBFD93FD99FD99F74
:100A4E00D9DFDDDFDDCFDDCFDDCFDDE7DDE7CCE7E5
:100A5E00CCE7CEEF8ECF8E4F8F7F873FA79FB79F6E
:100A6E00B3CFB3EFB1E7B9FFB87FBC3FBDBFBFBFD8
:100A7E00BF9FBF9FBFBFBFBFBFFFBFFF92FF92FF12
:100A8E00923F802F800F87EF8FEF8FFF8FFF9E7F1C
:100A9E009EF99EF99E818E9D8E9F8E7FAE7FAE7F3C
:100AAE00AC7FAC3FADBFBD9FBDDFBDDFB99FB99F72
:100ABE00B9BFBBBFBB1FBBBFB9BFBDBFBD9FB9A732
:100ACE00B9A7B8CFBDDFBD9FBDBFBE6F926792778E
:100ADE0093F193FF97FF87FF87FF83CF83CFC25F8B
:100AEE00E05FE45FF7DFF7DF97839783AB03810760
:100AFE009A079A879A878E0F8F6F8F7F87FF87FF50
:100B0E00D7FFD3FFD9FF49FF41FF41FF49FF6BFFDD
:100B1E006BFF7FFF7FFFFFFFFFFFFFFFFFFFFFFF6B
:100B2E00FFFFFFFFFFFFFFFFFFFFFFFFFFFFFFFFC7
:100B3E00FFFFFFFFFFFFFFFFFFFFFFFFFFFFBFFFF7
:100B4E00AAF9AAF9AAB982398E01A801A9FDB1FFA5
:100B5E00B7FF87FF87FF07FF037F037F023F183F23
:100B6E001ABF383F231F031F079F67936F834FC31F
:100B7E004FFF4FFF4FFF5FFF5FFF5FFF5FFF5FFFA7
:100B8E005FFF1FFF1FFF1FFF1FFF19FF19FF19FF39
:100B9E0019FF19FF18FF19FF19FF39FF39FF39FF28
:100BAE0019FF18FF18FF18FF18FF18FF11FF11FF8C
:100BBE0011FF59FF5BFF5BFF5BFF51FF41FF6B1F97
:100BCE00731F5107902790272E016F015309790942
:100BDE003A09124317031707075727DF27FF27FF87
:100BEE0027FF27FF27FF27FF27FF27FF27FF23FFCB
:100BFE0023FF27FF37FF17FF17FF17FF1FFF1FFFEB
:100C0E005FFF5FFF5FFF5FFF5FFF5FFF5FFF5FFFE6
:100C1E005FFF5FFF1FFF1FFF1FFF3FFF2CFF2CFF1C
:100C2E0028BF243F261F681F591F4B1F439F589FE5
:100C3E00D89FC49994599101A1008FFF0FFF1FFFF8
:100C4E003FFF3FFF3FFF9FFFBFFFBFFFBFFF3FFFC6
:100C5E003FFF3FFF3FFF3FFF3FFF3FFF3FFF3FFF96
:100C6E003FFF3FFF3FFF3FFF3FFF3FFFAFFF8FFFC6
:100C7E000FFFCFFFAFFFAFFFA7FFA7FF27FFAFFF0E
:100C8E00AFFFAFFFAFFF8FFF8FFFAFFFAFFFAFFF26
:100C9E00AFFFAFFFAFFFEFFFC7FF47FF67FF67FF76
:100CAE0063FF6387638740239A839B83CD03CD07BE
:100CBE00DA07D287D607C60FC76FCF7FCFFFCFFF1A
:100CCE00CFFF8FFFCFFFCFFFCFFFCFFFCFFFDAFFDB
:100CDE00D8FFD87FC07FC47FD5FFD1FFD3FFD3FF0E
:100CEE00D7FFC7FFC7FFCFFFCFFFCFFFCFFFCFFF8E
:100CFE00CFFFFFFFFFFFFFFFFFFFFFFFFCFFFCFF2C
:100D0E00F87FF83FFA18F019E101E1C7E9D7EBFFD8
:100D1E00E3FFE3FFE7FFC7FFC7FFC7FFC6FFD4FF31
:100D2E00D4FFD0FFD27FDA3F981F9A9093818381B0
:100D3E0087FF97FF97FF87FF87FFAFFFAFFF8FFFFD
:100D4E008FFF9FFF9FFF9FFF9FFF99FF99FF99FFC7
:100D5E0099FF99FF98FF99FF99FFB9FFB9FFB9FF66
:100D6E0099FF98FF98FF98FF98FF98FF91FF91FFCA
:100D7E0091FF99FF9BFF9BFF9BFF91FF81FFAB1F95
:100D8E00B31F91079027902757835783DB03C10723
:100D9E004A074A874A874E0F4F6F477F4FFF4FFFD5
:100DAE004FFFCFFFCFFFCFFFC87FC07FC33FCC7FAA
:100DBE00CD7FE9FFEBFFE3FFE7FFE7FFE7FFE7FF8D
:100DCE00FFFFFFFFFFFFFFFFFFFFFFFFFFFFFFFF25
:100DDE00FFFFFFFFFFFFFFFFFB7F787F685D601D5A
:100DEE0060956181418143FF53FF53FFD7FFC7FFDA
:100DFE00CFFFCFFF4FFF0FFF8FFFCFFFCABFC2BF87
:100E0E00529FD81FD89F488F438F83CFEFCF6FC08D
:100E1E008FE18FE18FFF9FFF9FFFDFFF5FFF5FFF80
:100E2E005FFF1FFF3FFF3FFFBFFFBFFFBFFFBFFFC4
:100E3E00BFFFBFFFBE7FBE7F3E7F3E7F3E7F3E7FBA
:100E4E001E7F1C7F1E7F1E7F1E7F1C3F1C3F5C7FF4
:100E5E00587F58FF48FF49FF69FF71FF3BFFAB1FEB
:100E6E00AB1FA9078827012731323A33343A35367A
:100E7E00002031362D323620200031323A33343ACA
:030E8E00353600F6
:1020750002310000012D0001301B012F06012E2029
:06208500012B06012C12E4
:0B209900EF1FAC0670011E4C70F62219
:09204C001220557580FF7FF40E8F
:10205500E4FDFCC3ED9FEC9E5015E4FBFA0BBB00C1
:0F206500010AEB647A4A70F50DBD00010C80E4AE
:012074002249
:101FDE00C2B5C2B3D2B5E4FEC2B3AB07EB1392B433
:101FEE00EFC313FFD2B30EBE08EEE4FEC2B3AB05D1
:101FFE00EB1392B4EDC313FDD2B30EBE08EEC2B511
:07200E007F027E0002209911
:0D208C00C2B5C2B3C2B47D807F8E021FDEDC
:101F5F00E4FEC2B5C2B3D2B5FDC2B3AB07EB139269
:101F6F00B4EFC313FFD2B30DBD08EEE4FD30B405DB
:101F7F00430680800353067FD2B3EEC313FEC2B372
:101F8F000DBD08E9C2B5EEC4540FFFEE540FFEEFBE
:061F9F0075F00AA42EFFFC
:011FA5002219
:101FA600E4FD7F8E121FDE7D407F80121FDE7D09DD
:101FB6007F82121FDE7D137F84121FDE7D107F86D7
:101FC600121FDE7D077F88121FDE7D187F8C121F91
:081FD600DE7D807F8E021FDE1C
:0B20A400EF1FAC0670011E4C70F6220E
:041D87008F288D29EB
:101D8B00E4F52AF9F52AE528C394085012AF287414
:101D9B0001A807088002C333D8FCF4F5808013E553
:101DAB002824F8FF7401A807088002C333D8FCF479
:101DBB00F5A07F037E00122055E529D39408501916
:101DCB00E4F9E9C3952950307401A801088002C3D6
:101DDB0033D8FCF452800980E9E4F580F9E5292435
:101DEB00F8FFE9C39F50117401A801088002C333A7
:101DFB00D8FCF452A00980E57F0A7E001220A4755E
:101E0B00A0FF7580FF7F067E00122055052AE52A6C
:101E1B00C394425003021D9130B7FD7F0A7E00022E
:021E2B00205540
:10124900E4F50AF50BF50DF50EF50F78107C00FDA8
:101259007BFF7A0E7976FE7F09121666751900757D
:101269001A00751B10781C7C007D007BFF7A0E79B3
:101279007F7E007F09121666752500752600752781
:101289001CD2B2D2B77FF47E011220557580FE7F41
:10129900C81E1220557580FF1220557580FE122038
:1012A9004CE52F75F00A842430F510E52F75F00A06
:1012B90084E5F02430F511E53075F00A842430F521
:1012C90013E53075F00A84E5F02430F514E52D7541
:1012D900F00A842430F516E52D75F00A84E5F0242A
:1012E90030F517E52B75F00A842430F51DE52B75CB
:1012F900F00A84E5F02430F51EE52E75F00A842401
:1013090030F520E52E75F00A84E5F02430F521202A
:10131900B7227F0A7E0012205520B718050EE4F582
:101329000FF50DE50EC394084003E4F50E7D08AFF3
:101339000E121D8730B2030212AA7F0A7E00122004
:101349005530B2030212AA050F7F35122055E4F574
:1013590008F509E50925E0FDE50833FCE50D75F01B
:1013690080A4AEF02DF50BEE3CF50AE50E0414B49D
:10137900100040030214ED90138E75F003A4C58389
:1013890025F0C583730214770213BE0213C6021334
:10139900CE0213D60213FC02140402141802142CF0
:1013A90002143402143C02144402144C0214540270
:1013B900145C021464AF0BEF90022E8058AF0BEF50
:1013C9009002AE8050AF0BEF90032E804874AE258B
:1013D9000BF5827403350AF583E493F58074AF2520
:1013E9000BF5827403350AF583E493F5A0750C10A7
:1013F9000214EDAF0BEF9005AE801AAF0BEF90061C
:101409002E93F580EFA393F5A0750C030214EDAFAD
:101419000BEF90068E93F580EFA393F5A0750C045E
:101429000214EDAF0BEF90070E8036AF0BEF90076C
:1014390010802EAF0BEF9007128026AF0BEF9007AD
:1014490014801EAF0BEF9007168016AF0BEF9007B5
:1014590018800EAF0BEF90071A8006AF0BEF9007BD
:101469001C93F580EFA393F5A0E4F50C8076750C39
:10147900047E00E5095407FFAB19AA1AA91B121625
:101489008C75F008A42FF582EE35F0F583E58224FA
:101499001EF582E5833406F583E493F580E5095466
:1014A90007FFAB25AA26A92712168C75F008A42FC9
:1014B900F582EE35F0F583E582241EF582E5833465
:1014C90006F583E493F5A0E509540764077015044C
:1014D900251BF51BE4351AF51A74012527F527E4B0
:1014E9003526F5267F647E001220A4E50925E0FD56
:1014F900E50833FCE50D75F080A42DFFE5F03CCF40
:101509002402FDE43FFCE50C75F020A4FFC3ED9F28
:10151900EC95F04025E50F94084005E4F50FF50D2D
:1015290075080075093F751900751A00751B107546
:10153900250075260075271C80140509E509700228
:101549000508C39440E5089400500302135CE509BB
:1015590025E0FDE50833FCE50D75F080A42DFFE5D8
:10156900F03CCF2402FDE43FFCE50C75F020A4FF1C
:10157900C3ED9FEC95F040030212AAE50FC394084E
:0D15890050030212AAE4F50F050D0212AA8C
:100E9100E4F508F509F50AF50BF50CF50DF50EF578
:100EA1000FF512F513F514F51578167C00FD7BFF8F
:100EB1007A0E7988FE7F09121666E4F51F752046C1
:100EC10075210EF5227523007524167FC8FE1220A8
:100ED100557580EF1220557580FF1220557580EFF2
:100EE10012204C050DE50D7002050C20B7200514EC
:100EF100E514C394044003E4F5147D04AF14121DFA
:100F010087E4F508F509F512F513F50EF50FE52F50
:100F110075F00A842430F516E52F75F00A84E5F0A2
:100F21002430F517E53075F00A842430F519E530E1
:100F310075F00A84E5F02430F51AE52D75F00A8480
:100F41002430F51CE52D75F00A84E5F02430F51DFB
:100F5100E514146063147003020FEA1470030210A5
:100F61000224036003021051751F02AB22AA23A9B8
:100F71002412168C75F008A4250BF582E5F0350ACC
:100F8100F583E582241EF582E5833406F583E49337
:100F9100F580050BE50B7002050AC39408E50A9478
:100FA100005003021051E4F50AF50B042524F52441
:100FB100E43523F523021051751F037510017511D6
:100FC10080E5132509FFE5123508FE74AE2FF58281
:100FD10074033EF583E493F58074AF2FF5827403B7
:100FE1003EF583E493F5A08067751F0175100075C8
:100FF10011E0E5132509FF900A1693F5A0EFA380F0
:101001004C751F017510007511E0E5132509FFE509
:10101100123508FE75F0E0E515A424F6F582E5F039
:10102100340AF583E5822FF582E5833EF583E49367
:10103100F5A075F0E0E515A424F7F582E5F0340A92
:10104100F583E5822FF582E5833EF583E493F58010
:10105100AF207E001220A47580FF75A0FFE52075EA
:10106100F00784FF7E001220A4E5132509FFE51295
:101071003508FEE51124FEFDE51034FFFCC3EF9DAC
:10108100EE9C500EAB22AA23A92412168C600302F7
:10109100112175220075230075241675A0FF758036
:1010A100FF30905020B7240514E514C39404400385
:1010B100E4F5147D04AF14121D87E4F508F509F574
:1010C10012F513F50EF50FF50AF50BE51F64036034
:1010D1000BE51F64016005E51FB402117F0A7E0064
:1010E1001220A4050BE50B70B8050A80B4E4F50ADB
:1010F100F50B80ADAE0AAF0B7C007D461216A5EF55
:101101007803CEC313CE13D8F9FFAD207C0012169D
:10111100B7EF250DF50DEE350CF50CE4F50AF50BE1
:10112100309026E5132509FFE5123508FEE5112467
:10113100FEFDE51034FFFCC3EF9DEE9C500B7402E5
:101141002509F509E43508F508309003020EE4E5B8
:101151002175F008A4FFAEF02401FDE43EFCD3E5C7
:101161000D9DE50C9C40020520EF24FFFFEE34FFAE
:10117100FEC3E50D9FE50C9E50021520E4F50CF52C
:101181000DF522752300752416F50AF50B7580FF00
:10119100E51124FEFFE51034FFFEC3E5139FE512C0
:1011A1009E400BE4F512F513F50EF50F800B74025A
:1011B1002513F513E43512F512E51FB402047F017E
:1011C10080027F00E51FB401047E0180027E00EEF3
:1011D1004F6005E4F512F513E4F508F5093090FDCB
:1011E100E51FB4033AC3E50F9478E50E940050125D
:1011F1007402250FF50FE4350EF50EE4F512F51323
:101201008006750E00750F78C37478950FFFE4950D
:101211000EFEAD207C001216A51220A4020EE405DC
:101221000FE50F7002050ED39402E50E94005003F2
:10123100020EE4E4F50EF50F0515E51564046003EF
:08124100020EE4F515020EE4B3
:101C9500E4F547F548754907754AD07580FF2090EA
:101CA5001185474985484AE4F547F5487580FF3071
:101CB50090FD3090E90548E548700205477F2F7E85
:101CC500001220A4AE47AF48E4FCFD7BDC7AFFF9A7
:101CD500F8C312170C50067547077548D0AE49AFC3
:101CE5004A7C007D051216A5AA06AB07AE47AF488C
:101CF5007D3B1216A5AD03AC021216B7D3ED944485
:101D0500EC940050087580FC75A0FF800675A0FF57
:101D15007580FFAE47AF487C007D3B1216A5AC49E8
:101D2500AD4A1216B77C00EFB52D0AECB50606755F
:101D3500A0005380037C00EFB5300AECB5060675AC
:101D4500A00053807FAE47AF487C007D3B1216A5AF
:101D5500AC49AD4A1216B7AC06AD07E52F75F005CF
:101D6500A4FFAEF0E53075F00C847A002FFFEA3E53
:101D7500FEED6F7002EC6E6003021CA353A001021E
:021D85001CA39D
:10172E00E4F541F5427543037544E8F545F5467514
:10173E0080FF20900E854143854244E4F541F542F9
:10174E003090FD3090EC0542E542700205417F502D
:10175E007E001220A4AE41AF42E4FCFD7BDC7AFF9A
:10176E00F9F8C312170C50067541EA754260AE4384
:10177E00AF447C007D0F1216A5AA06AB07AE41AF93
:10178E00427D3B1216A5AD03AC021216B78C458DE9
:10179E0046AE43AF447C007D051216A5AA06AB07E4
:1017AE00AE41AF427D3B1216A5AD03AC021216B789
:1017BE00D3ED943CEC940050067580FE75A0FFD3DB
:1017CE00E546943CE545940050035380F8D3ED94E0
:1017DE003CEC9400400675A0FF7580FFE52F75F078
:1017EE000C84AFF07545008F46AF2D7E00AC43AD37
:1017FE00441216A5EF24E2FBEE34FFFAAE41AF42DF
:10180E007C007D3B1216A5D3EF9BEE9A402AAF2D9E
:10181E007E00AC43AD441216A5EF241EFBE43EFA47
:10182E00AE41AF427C007D3B1216A5C3EF9BEE9AF4
:10183E00500675A000538003AE41AF427C007D3B45
:10184E001216A5AA06AB07AC43AD441216B77C0020
:10185E00EFB5300AECB5060675A00053801FAC43F9
:10186E00AD44AF03AE021216B7AA06AB07AE45AF34
:10187E00467C007D051216A5E53075F00C842FFF11
:10188E00EC3EFEEB6F7002EA6E6003021740F5A0AD
:03189E00021740EE
:1018A100E4F533F5347535037536E8F582F583F5DE
:1018B10037F538F5397580FF752D0A75300A752FA2
:1018C1000A2090020539C3E539648094814010856E
:1018D1003335853436E4F533F534F5393090FD058B
:1018E10034E534700205337F3C7E001220A4AE3310
:1018F100AF34E4FCFD7BDC7AFFF9F8C312170C501E
:10190100067533EA753460AE35AF367C007D0F1253
:1019110016A5AA06AB07AE33AF347D3B1216A5ADB3
:1019210003AC021216B78C838D82AE35AF367C00C4
:101931007D051216A5AA06AB07AE33AF347D3B1267
:1019410016A5AD03AC021216B78C378D38D3E582DC
:10195100943CE583940050035380F8D3E538943CDC
:10196100E537940050085380FE75A0FF800675A0EE
:10197100FF7580FFAE33AF347C007D3B1216A58E20
:10198100838F82AF2D7E00AC35AD361216A58E3712
:101991008F38E53824CEFFE53734FFFED3E5829F4B
:1019A100E5839E4018E5382432FFE43537FEC3E570
:1019B100829FE5839E500675A000538003AE33AF2E
:1019C100347C007D3B1216A5AC35AD361216B78EB0
:1019D100378F38E530B53809E4B53705F5A05380C0
:1019E1001FE52F75F00C84E5F075F005A4FFAEF04E
:1019F100E53075F00C847C002FF582EC3EF583E533
:101A01003865827004E537658360030218C2F5A06A
:031A11000218C2F6
:101A1400E4F53AF53B753C03753DE8F582F583F54D
:101A24003EF53FF5407580FF2090020540C3E54038
:101A3400648094814010853A3C853B3DE4F53AF559
:101A44003BF5403090FD053BE53B7002053A7F3C99
:101A54007E001220A4AE3AAF3BE4FCFD7BDC7AFFAF
:101A6400F9F8C312170C5006753AEA753B60AE3CA0
:101A7400AF3D7C007D0F1216A5AA06AB07AE3AAFA8
:101A84003B7D3B1216A5AD03AC021216B78C838DB9
:101A940082AE3CAF3D7C007D051216A5AA06AB07BD
:101AA400AE3AAF3B7D3B1216A5AD03AC021216B79E
:101AB4008C3E8D3FD3E582943CE5839400500353E0
:101AC40080F8D3E53F943CE53E940050085380FEF3
:101AD40075A0FF800675A0FF7580FFAE3AAF3B7C12
:101AE400007D3B1216A5AA06AB078A838B82AF2D15
:101AF4007E00AC3CAD3D1216A58E3E8F3FAF03AECB
:101B0400021216B7D3EF952DEE940050035380EFD5
:101B14008E3E8F3FD3E53F9530E53E94005003530E
:101B2400807FE52F75F00C84E5F075F005A4FFAE19
:101B3400F0E53075F00C847C002FF582EC3EF583E3
:101B4400D3E53F9582E53E95834003021A2C53A0CA
:041B5400FB021A2C4A
:101B5800E4F508F509F50AF50BF50C750D01F50E18
:101B6800750F0575100175112CF5127FC8FE12202E
:101B78005575A0FE12205575A0FF12205575A0FEC0
:101B880012205575A0FF7FF40E12205575F020E540
:101B980012A4F58285F083AF0975F002EF121722BF
:101BA800E582240EF582E5833400F583E493F5A0FD
:101BB80075F020E512A4F58285F08375F002EF1226
:101BC8001722E582240FF582E5833400F583E49338
:101BD800F5807F5A7E001220A47FC87E001220A4C0
:101BE8000509E5097002050825E0FFE50833FEEF61
:101BF8002402FFE43EFEC3EF9420EE9400400DE47F
:101C0800F508F509050BE50B7002050A20B739053B
:101C180012E50D6401450C7006F50CF50DF512AFD3
:101C280012EF3395E0FEC3EF950FEE950E400E755B
:101C380012FF750C00750D01E4F50AF50BE51204A9
:101C4800FFE50F04FD121D87E50D6401450C6003D7
:101C5800021B94D3E512648094805003E4F512C308
:101C6800E50B9511E50A95105003021B94E4F50A5B
:101C7800F50B0512AF12EF3395E0FEC3EF950FEEAB
:0D1C8800950E5003021B94E4F512021B940C
:101E2D00758901758CEEE4F58AD2AFD2A9D28CD228
:101E3D009012208C7F81121F5F8F2D7F83121F5F69
:101E4D008F307F85121F5F8F2F7F87121F5F8F2E21
:101E5D007F89121F5F8F2B7F8D121F5F8F2CE52EB9
:101E6D00C3942050287F8D121F5FEFB52C1F7F89E3
:101E7D00121F5FEFB52B167F87121F5FEFB52E0D6B
:101E8D00E4F5A07FF47E0112205575A0FF20950387
:101E9D0012124930B1047F0180027F003095047E1B
:101EAD000180027E00EE5F6003120E913095047F7B
:101EBD000180027F0020B1047E0180027E00EE5F72
:061ECD006003121B582205
:03000B00022015BB
:10201500C0E0C0D0758CEE758A000532E5327002DD
:10202500053164C845317006052DF531F532E52DCC
:10203500B43C050530752D00E530B43C05052F751C
:072045003000D0D0D0E032E2
:03000000021ED30A
:0C1ED300787FE4F6D8FD75814A021F1AE2
:10159600E709F608DFFA8046E709F208DFFA803E37
:1015A60088828C83E709F0A3DFFA8032E309F60824
:1015B600DFFA8078E309F208DFFA807088828C838C
:1015C600E309F0A3DFFA806489828A83E0A3F60840
:1015D600DFFA805889828A83E0A3F208DFFA804C1A
:1015E60080D280FA80C680D4806980F280338010F1
:1015F60080A680EA809A80A880DA80E280CA80335A
:1016060089828A83ECFAE493A3C8C582C8CCC583D1
:10161600CCF0A3C8C582C8CCC583CCDFE9DEE780A1
:101626000D89828A83E493A3F608DFF9ECFAA9F020
:10163600EDFB2289828A83ECFAE0A3C8C582C8CC76
:10164600C583CCF0A3C8C582C8CCC583CCDFEADE8F
:10165600E880DB89828A83E493A3F208DFF980CCF1
:1016660088F0EF60010E4E60C388F0ED2402B404EA
:101676000050B9F582EB2402B4040050AF23234591
:0616860082239015E673BB
:10168C00BB010689828A83E0225002E722BBFE025C
:09169C00E32289828A83E493228F
:1016A500EF8DF0A4A8F0CF8CF0A428CE8DF0A42E59
:0216B500FE2213
:1016B700BC000BBE0029EF8DF084FFADF022E4CC17
:1016C700F875F008EF2FFFEE33FEEC33FCEE9DECE0
:1016D700984005FCEE9DFE0FD5F0E9E4CEFD22ED26
:1016E700F8F5F0EE8420D21CFEADF075F008EF2F70
:1016F700FFED33FD4007985006D5F0F222C398FD61
:051707000FD5F0EA22FD
:10170C00EB9FF5F0EA9E42F0E99D42F0EC6480C854
:06171C0064809845F022F4
:0C172200A42582F582E5F03583F58322D2
:101EDF00021E2DE493A3F8E493A34003F68001F2CE
:101EEF0008DFF48029E493A3F85407240CC8C33304
:101EFF00C4540F4420C8834004F456800146F6DFD3
:101F0F00E4800B0102040810204080902075E47ECD
:101F1F00019360BCA3FF543F30E509541FFEE493C7
:101F2F00A360010ECF54C025E060A840B8E493A38E
:101F3F00FAE493A3F8E493A3C8C582C8CAC583CAB9
:101F4F00F0A3C8C582C8CAC583CADFE9DEE780BE71
:01208B000054
:00000001FF
