:10000E007FFE3FFE1FFE0FF607F603F601B600B6A3
:10001E0000B601B603F607F60FF61FFE3FFE7FFE93
:10002E00AFFEAFFEBFFABFFAFFEAFFEAFFABFFABD0
:10003E00FEAFFEAFFABFFABFEAFFEAFFABFFABFFC0
:10004E00FFFFF0FFE07FC03FC01FC00FE007F003CF
:10005E00F003E007C00FC01FC03FE07FF0FFFFFFBF
:10006E00FF7FFFBFFFDFFFEFFFF7FFFBFFFDFFFE91
:10007E00FFFDFFFBFFF7FFEFFFDFFFBFFF7FFEFF81
:10008E00FFFFFFDFFFDFFFDFFFDFFFDFFFDFFFDF52
:10009E00FFDFFBDEFDDDFEDBFF57FF8FFFDFFFFF28
:1000AE00FBFFDBEFDBEDDBDE80013BBFBB7DFBFD52
:1000BE00FBFB0037FBCFBBD7CBBBFA7DFBE0FFFFD3
:1000CE00FFBFBFBFA8A0AAADAA2DAAADAAAD0AAD0B
:1000DE00AAADAAADAA2DAAADA8A0BFBFFFBFFFFFB4
:1000EE00DFF7DBEFDD9FDE7FD9BEC6CDFDFBF3E78D
:1000FE000F9FEC7FEF9FEFE7EBFBE7FDFFFEFFFFB0
:10010E00FF7FFEFFF9FFE0001FFFFDF7FBCFE73F8C
:10011E000FFDEFFEEC01EFFFEF7FEB9FE7E7FFFF39
:10012E00FFFFFFFFFFFF8033FFFFFFFFFFFFFFFF1C
:10013E00FFFFFFFFFFFFFFFFFFFFFFFFFFFFFFFFC1
:10014E00FFFFFFFFFFFF8033FFFFFFFFFFFFFFFFFC
:10015E00FFFFFFFFFFFFFFFFFFFFFFFFFFFFFFFFA1
:10016E00F7DFF9DF7F0098FDFFF3E00EEEFEEE7D88
:10017E00EE9B00E7EEE7EE9BEE79E7FCEFFDFFFF6F
:10018E00FF7FBF7FBF7FA143AB57AB57AB57AB577B
:10019E00A143BF7DBF7E8101BF7FBE7FFF7FFFFF7B
:1001AE00FEFFFDFFF001CBFF3DF7FBCFE63F0F7BE0
:1001BE00AFFDE803EFFFEEFFEB3FC7C7EFEFFFFF2B
:1001CE00F7FEF73DF0BB07D7F7CFF031FEFBBEFFD2
:1001DE00BEFDBEFEB001AEFF9EFFBEFFFEFFFFFFE7
:1001EE00FFFEE01DFFFBFFE7001FFFFFE007EFFF35
:1001FE00EFFFEFFF0000EFFFEFEFEFE7E00FFFFF86
:10020E00FFFFFFFFFFFFF005FFFFFFFFFFFFFFFFF9
:10021E00FFFFFFFFFFFFFFFFFFFFFFFFFFFFFFFFE0
:10022E00FFFFFFFF01C0FFDFFFDFFFDFFFDFFFDFAD
:10023E00FFDFFFDFFFFFFFFFFFFF07F0FBEFFDDF3D
:10024E00FDDFFDDFFDDFFBEF07F0FFFFFFFFFFFF31
:10025E0001F8FFF7FFEFFFDFFFDFFFEFFFF701F81A
:10026E00FFFFFFFFFFFF01C07DDF7DDF7DDF7DDF55
:10027E007DDF7DDF7DDFFFFFFFFF87FF03FF01FED9
:10028E0001FC01F801F001E003C0078003C001E0AA
:10029E0001F001F801FC01FE03FF87FFFFFFFFFFE6
:1002AE00DFFFDBF7DBB7DB7B0180DCFDDDBEDFBF15
:1002BE00DFDF00ECDFF3DDEBD3DD5FBEDF07FFFF3B
:1002CE00FFFFFFFFFFFFFFFF8FFF03FE01FC01F8A3
:1002DE0000F000E000C000C00080018003000700B5
:1002EE00070003000180008000C000C000E000F0A5
:1002FE0001F801FC03FE8FFFFFFFFFFFFFFFFFFF73
:10030E00FFFE7FFF9FFF0700F8FFBFEFDFF3E7FC65
:10031E00F0BFF77F3780F7FFF7FED7F9E7E7FFFF6C
:10032E00FFFFFFFFFFFF1FF8E7E7FBDFFDBFFFFF4C
:10033E00FFFFFFFFFEFFFEFFFEFFFEFFFEFFFEFFC5
:10034E00FEFFFEFFFEFFFEFFFEFFFEFFFEFFFFFFB6
:10035E00FFFFFFFFFBFFE3FF9BFF7BFEFBF9FBE7CE
:10036E00FBF97BFE9BFFE3FFFBFFFFFFFFFFFFFFA2
:10037E00FEFFFEFFFEFFFEFFFEFFFEFFFEFFFEFF87
:10038E00FEFFFEFFFEFFFEFFFEFFFEFFFFFFFFFF75
:10039E00FFFFFDBFFBDFE7E71FF8FFFFFFFFFFFFDC
:1003AE00FBEFDBF7BBF97BFE9B7D63B3BFDFCFE7D4
:1003BE00F0F937FEF7F9F7E7D7DFE7BFFF7FFFFF6B
:1003CE00BFFFBFBFBDDF33E0FFDFFFBF03B0FBBB2F
:1003DE00FDBDFFBF0380FBBDFBBB03BCFFBFFFFF2B
:1003EE007FFF9FFF0700F8FFFB7F1B7EDBBADBD68C
:1003FE00DBEE00D0DBBEDBBEDB7E1B7EFB7FFFFFBA
:10040E00FF7FFF9F01E0DDFDDDFDDDFDDDFD0180F8
:10041E00DDFDDDFDDDBDDD7D0180FFFFFFFFFFFFAB
:10042E00F7FDF7FE76FF110067FFFFFCFFFF07E009
:10043E0077F777F7000077F777F707E0FFFFFFFF13
:10044E00BFFFBFFFBBFFBBE19BEDABEDB3EDB8ED67
:10045E00B3E1ABBF9B7F3B80BBFFBFFFBFFFFFFF87
:10046E00FF7FFF9F0160B57F55B001B565D515E5DE
:10047E007C905545655501456510D57FBD3FFFFF05
:10048E00BFEF9FC7AFEBB3EDBCEE3FEBCFC7FBFFAC
:10049E00FBFFFBFFFBBFFB7FFBBF03C0FFFFFFFFAD
:1004AE00EFFDEFBDEF7E00806FFFFFFF6BFD9B85C5
:1004BE00BBBDABBD1D80BDBD9CBDA505FFFDFFFF3A
:1004CE00EFFDEFBDEF7E00806FFFFFFF6BFD9B85A5
:1004DE00BBBDABBD1D80BDBD9CBDA505FFFDFFFF1A
:1004EE00EFFBEFFC2FFF00006FFFEFFEBBEDABEE5F
:1004FE002BEB8BEBA000ABEB2BEBABEEBBEDFFFFD7
:10050E00FFFFFFFFFFFF01CCFFFFFFFFFFFFFFFF1E
:10051E00FFFFFFFFFFFFFFFFFFFFFFFFFFFFFFFFDD
:10052E00FFFFFFFFFFFFFFFF0000FFFFFFFFFFFFCB
:10053E007FFF7F7F7BBF7BDF7BE701F87DFF7CFF4B
:10054E007DFF7FFF00007FFF7FFF7FFF7FFFFFFFAD
:10055E00DFDDCF9853DD9CEDCFEDFFBFFDCFFD70FE
:10056E00017FFDBCFDD39DEFA5D339BCFF7FFFFFFF
:10057E00FF7F0180DFFEDFFEC000DF7FFF9F03E015
:10058E00DB7F1BBEDBD9DDE7DCD91DBEFF7FFFFFA6
:10059E00FFFFFFFFFFFFFFFF0000FFFFFFFFFFFF5B
:1005AE00F7BFF7C777FF77FF77C377BF77BF00BD7A
:1005BE0077B377BF77BF778F77FBF7F7F7CFFFFF6D
:1005CE00EFFDF3FDDBFDDBFDDBFDDBBDDA7D198031
:1005DE00DBFDDBFDDBFDDBFDDBFDEBFDF3FDFFFFFF
:1005EE00BFFFAFFFB1C1B7FDB7FD0000B7EDB7DD7F
:1005FE00B7E1BFFF07F0FFBFFF7F0080FFFFFFFFE8
:10060E00FFFE7FFF9FFF0700F8FFBFFFCFFFF0FF4A
:10061E00070077F777F777F777F7F7F7F7FFFFFF2B
:10062E00FFFFFFFFF7FFE7FFDBFF5BFFBDFEF9FEFE
:10063E00D7F98FF77FF5FFEAFFD7FFCFFFBFFFFF99
:10064E0003F0FDEFFDDFFE1FFE7FDEBF9EBF9EBFF0
:10065E005ECF5EC3DED4DED7CEDBF2DBFCDBF2DBBD
:10066E00CEDBDED7DED45EC35ECF9EDF9EDFDEDF67
:10067E00FEDFFDDFFDEF03F0FFFFFFFFFFFFFFFFDC
:10068E00FFFF7FFC1FF80FF007E007E003C003C079
:10069E00018001800180818181818181C183C3C3F9
:1006AE00C3C3E7E7E7E7EFF7FFFF3FFC1FF81FF8CD
:1006BE001FF81FF83FFCFFFFFFFF3FFC1FF81FF85E
:1006CE001FF81FF83FFCFFFFFFFF3FFC1FF81FF84E
:1006DE001FF81FF83FFCFFFFEFF7E7E7E7E7C3C39D
:1006EE00C3C3C183818181818181018001800180A9
:1006FE0003C003C007E007E00FF01FF87FFCFFFF09
:10070E00FFFFFFFFFFFFFFFFFFFFFFFFFFFFFFFFEB
:10071E00FFFFFFFFFFFFFFFFFFFFFF2020FFFFFF99
:10072E00FFF8F8FFF8F8FFFFEBFBA0EBA0EBEBFFF9
:10073E00D1D580D580D5C5FF389AC8E713591CFF8F
:10074E009966766696996FFFFFFFF8F8FFFFFFFF39
:10075E00FFFFC3BD7EFFFFFFFFFFFF7EBDC3FFFF99
:10076E00FFD5F7C1F7D5FFFFFFF7F7C1F7F7FFFF8B
:10077E00FFFF7F8FCFFFFFFFFFF7F7F7F7F7FFFFC3
:10078E00FFFFFFFFFF9F9FFFFF3F9FCFE7F3F9FFA5
:10079E00FFC3BD7E7EBDC3FFFFFF7D7D007F7FFF5C
:1007AE00FF7D3E5E6E7679FFFF6D6D6D6D6D01FFA7
:1007BE00EFE7EBED00EFEFFFFF616D6D6D6D0DFF80
:1007CE00836D767676768FFFFFFE1EEEF6FAFCFFD1
:1007DE00FF817676767681FFFF616E6E6E6E81FF9B
:1007EE00FFFF2727FFFFFFFFFF7F1393FFFFFFFF93
:1007FE00FFFFE7DBBD7EFFFFFFDBDBDBDBDBDBFFD2
:10080E00FFFF7EBDDBE7FFFFFFFDFE4EF6F9FFFFAC
:10081E00C3BD665A5A465DC33FCFD3DCD3CF3FFF2D
:10082E00FF80B6B6B6B6C9FFE3DDBEBEBEBEDDFF07
:10083E00FF80BEBEBEDDE3FFFF80B6B6B6B6BEFF1E
:10084E00FF80F6F6F6F6FEFFE3DDBEBEBEBE8DEF12
:10085E00FF80F7F7F7F780FFFFFFBE80BEFFFFFFB9
:10086E00FFDFBFBE80FEFFFFFF80F7EBDDBEBEFFEA
:10087E00FF80BFBFBFBFFFFF80FDE39FE3FD80FF93
:10088E0080FDFBF7EFDF80FFE3DDBEBEBEDDE3FFE5
:10089E00FF00EEEEEEEEF1FFE3DDBEBEAEDDA3BF7A
:1008AE00FF80F6F6E6D6B9FFFFB9B6B6B6B6CEFFFE
:1008BE00FEFEFE80FEFEFEFFFFC0BFBFBFBFC0FF3D
:1008CE00FFF0CFBFBFCFF0FFE09FE7F9E79FE0FF5C
:1008DE00BEDDEBF7EBDDBEFFF8F7EF1FEFF7F8FF2E
:1008EE00FFBE9EAEB6BABCFFFFFF007E7E7EFFFF50
:1008FE00FEFDFBF7EFDFBF7FFFFF7E7E7E00FFFF7B
:10090E00FFFBFDFEFDFBFFFF7F7F7F7F7F7F7F7FF6
:10091E00FFFFFCFCFFFFFFFFFFC7B6B6B6B681BFF9
:10092E00FF80B7B7B7B7CFFFE7DBBDBDBDFFFFFF9A
:10093E00FFCFB7B7B780FFFFFFC3B5B5B5B5F3FFB0
:10094E00FFF77701F6F5FFFFFFB176767681FFFFB1
:10095E00FF00EFF7F70FFFFFFFF7FB027FBFFFFF71
:10096E00FF3F7F7F02FFFFFFFF01DFAF77FFFFFF3C
:10097E00FFFFFF007FFFFFFF87FBFB87FBFB87FF70
:10098E00FF87FBFBFB87FFFFFFC7BBBBBBC7FFFFA1
:10099E00FF01EDEDF3FFFFFFFFF3EDED017FFFFF35
:1009AE00FFFD01F7FBFDFDFFFF736D6D6D9DFFFFFD
:1009BE00FFF7F7017777B7FFFFC1BFBFBF81BFFF5B
:1009CE00F7E7DF3FDFE7F7FFC7BFDFE7DFBFC7FFB1
:1009DE00FFBBD7EFD7BBFFFFFFBEBDDBE7FBFDFEC7
:1009EE00FFBB9BABB3BBFFFFFFEF117D7DFFFFFF97
:1009FE00FFFFFF00FFFFFFFFFFFFFF7D7D11EFFFFA
:100A0E00F7FBFBF7EFEFF7FFE7DFF7DFF7DFF79F18
:100A1E00F40FF47FF57FF1EFF3EFE3C7E7DFE79B2A
:100A2E00E73DE73DCE75CEF5CEE7CCEFCCCFCD9FF3
:100A3E00DD9FDD7FDD3FDDBFDDBFD93FD99FD99F74
:100A4E00D9DFDDDFDDCFDDCFDDCFDDE7DDE7CCE7E5
:100A5E00CCE7CEEF8ECF8E4F8F7F873FA79FB79F6E
:100A6E00B3CFB3EFB1E7B9FFB87FBC3FBDBFBFBFD8
:100A7E00BF9FBF9FBFBFBFBFBFFFBFFF92FF92FF12
:100A8E00923F802F800F87EF8FEF8FFF8FFF9E7F1C
:100A9E009EF99EF99E818E9D8E9F8E7FAE7FAE7F3C
:100AAE00AC7FAC3FADBFBD9FBDDFBDDFB99FB99F72
:100ABE00B9BFBBBFBB1FBBBFB9BFBDBFBD9FB9A732
:100ACE00B9A7B8CFBDDFBD9FBDBFBE6F926792778E
:100ADE0093F193FF97FF87FF87FF83CF83CFC25F8B
:100AEE00E05FE45FF7DFF7DF97839783AB03810760
:100AFE009A079A879A878E0F8F6F8F7F87FF87FF50
:100B0E00D7FFD3FFD9FF49FF41FF41FF49FF6BFFDD
:100B1E006BFF7FFF7FFFFFFFFFFFFFFFFFFFFFFF6B
:100B2E00FFFFFFFFFFFFFFFFFFFFFFFFFFFFFFFFC7
:100B3E00FFFFFFFFFFFFFFFFFFFFFFFFFFFFBFFFF7
:100B4E00AAF9AAF9AAB982398E01A801A9FDB1FFA5
:100B5E00B7FF87FF87FF07FF037F037F023F183F23
:100B6E001ABF383F231F031F079F67936F834FC31F
:100B7E004FFF4FFF4FFF5FFF5FFF5FFF5FFF5FFFA7
:100B8E005FFF1FFF1FFF1FFF1FFF19FF19FF19FF39
:100B9E0019FF19FF18FF19FF19FF39FF39FF39FF28
:100BAE0019FF18FF18FF18FF18FF18FF11FF11FF8C
:100BBE0011FF59FF5BFF5BFF5BFF51FF41FF6B1F97
:100BCE00731F5107902790272E016F015309790942
:100BDE003A09124317031707075727DF27FF27FF87
:100BEE0027FF27FF27FF27FF27FF27FF27FF23FFCB
:100BFE0023FF27FF37FF17FF17FF17FF1FFF1FFFEB
:100C0E005FFF5FFF5FFF5FFF5FFF5FFF5FFF5FFFE6
:100C1E005FFF5FFF1FFF1FFF1FFF3FFF2CFF2CFF1C
:100C2E0028BF243F261F681F591F4B1F439F589FE5
:100C3E00D89FC49994599101A1008FFF0FFF1FFFF8
:100C4E003FFF3FFF3FFF9FFFBFFFBFFFBFFF3FFFC6
:100C5E003FFF3FFF3FFF3FFF3FFF3FFF3FFF3FFF96
:100C6E003FFF3FFF3FFF3FFF3FFF3FFFAFFF8FFFC6
:100C7E000FFFCFFFAFFFAFFFA7FFA7FF27FFAFFF0E
:100C8E00AFFFAFFFAFFF8FFF8FFFAFFFAFFFAFFF26
:100C9E00AFFFAFFFAFFFEFFFC7FF47FF67FF67FF76
:100CAE0063FF6387638740239A839B83CD03CD07BE
:100CBE00DA07D287D607C60FC76FCF7FCFFFCFFF1A
:100CCE00CFFF8FFFCFFFCFFFCFFFCFFFCFFFDAFFDB
:100CDE00D8FFD87FC07FC47FD5FFD1FFD3FFD3FF0E
:100CEE00D7FFC7FFC7FFCFFFCFFFCFFFCFFFCFFF8E
:100CFE00CFFFFFFFFFFFFFFFFFFFFFFFFCFFFCFF2C
:100D0E00F87FF83FFA18F019E101E1C7E9D7EBFFD8
:100D1E00E3FFE3FFE7FFC7FFC7FFC7FFC6FFD4FF31
:100D2E00D4FFD0FFD27FDA3F981F9A9093818381B0
:100D3E0087FF97FF97FF87FF87FFAFFFAFFF8FFFFD
:100D4E008FFF9FFF9FFF9FFF9FFF99FF99FF99FFC7
:100D5E0099FF99FF98FF99FF99FFB9FFB9FFB9FF66
:100D6E0099FF98FF98FF98FF98FF98FF91FF91FFCA
:100D7E0091FF99FF9BFF9BFF9BFF91FF81FFAB1F95
:100D8E00B31F91079027902757835783DB03C10723
:100D9E004A074A874A874E0F4F6F477F4FFF4FFFD5
:100DAE004FFFCFFFCFFFCFFFC87FC07FC33FCC7FAA
:100DBE00CD7FE9FFEBFFE3FFE7FFE7FFE7FFE7FF8D
:100DCE00FFFFFFFFFFFFFFFFFFFFFFFFFFFFFFFF25
:100DDE00FFFFFFFFFFFFFFFFFB7F787F685D601D5A
:100DEE0060956181418143FF53FF53FFD7FFC7FFDA
:100DFE00CFFFCFFF4FFF0FFF8FFFCFFFCABFC2BF87
:100E0E00529FD81FD89F488F438F83CFEFCF6FC08D
:100E1E008FE18FE18FFF9FFF9FFFDFFF5FFF5FFF80
:100E2E005FFF1FFF3FFF3FFFBFFFBFFFBFFFBFFFC4
:100E3E00BFFFBFFFBE7FBE7F3E7F3E7F3E7F3E7FBA
:100E4E001E7F1C7F1E7F1E7F1E7F1C3F1C3F5C7FF4
:100E5E00587F58FF48FF49FF69FF71FF3BFFAB1FEB
:100E6E00AB1FA9078827012731323A33343A35367A
:100E7E00002031362D323620200031323A33343ACA
:030E8E00353600F6
:1020CD0002310000012D0001301B012F06012E20D1
:0620DD00012B06012C128C
:0B210000EF1FAC0670011E4C70F622B1
:0920A4001220AD7580FF7FF40EDF
:1020AD00E4FDFCC3ED9FEC9E5015E4FBFA0BBB0069
:0F20BD00010AEB647A4A70F50DBD00010C80E456
:0120CC0022F1
:10203600C2B5C2B3D2B5E4FEC2B3AB07EB1392B4DA
:10204600EFC313FFD2B30EBE08EEE4FEC2B3AB0578
:10205600EB1392B4EDC313FDD2B30EBE08EEC2B5B8
:072066007F027E0002210051
:0D20F300C2B5C2B3C2B47D807F8E0220361C
:101FB700E4FEC2B5C2B3D2B5FDC2B3AB07EB139211
:101FC700B4EFC313FFD2B30DBD08EEE4FD30B40583
:101FD700430680800353067FD2B3EEC313FEC2B31A
:101FE7000DBD08E9C2B5EEC4540FFFEE540FFEEF66
:061FF70075F00AA42EFFA4
:011FFD0022C1
:101FFE00E4FD7F8E1220367D407F801220367D09D3
:10200E007F821220367D137F841220367D107F86CC
:10201E001220367D077F881220367D187F8C122085
:08202E00367D807F8E02203612
:0420E4007F0A7E00F1
:0B20E800EF1FAC0670011E4C70F622CA
:041DDF00AD15AF147B
:041DE3008F288D298F
:101DE700E4F52AF9F52AE528C394085012AF2874B8
:101DF70001A807088002C333D8FCF4F5808013E5F7
:101E07002824F8FF7401A807088002C333D8FCF41C
:101E1700F5A07F037E001220ADE529D39408501961
:101E2700E4F9E9C3952950307401A801088002C379
:101E370033D8FCF452800980E9E4F580F9E52924D8
:101E4700F8FFE9C39F50117401A801088002C3334A
:101E5700D8FCF452A00980E51220E475A0FF758034
:101E6700FF7F067E001220AD052AE52AC394425063
:0E1E770003021DED30B7FD7F0A7E000220AD94
:10129800E4F50AF50BF50DF50EF50F78107C00FD59
:1012A8007BFF7A0E7976FE7F091216B575190075DF
:1012B8001A00751B10781C7C007D007BFF7A0E7964
:1012C8007F7E007F091216B57525007526007527E3
:1012D8001CD2B2D2B77FF47E011220AD7580FE7F9A
:1012E800C81E1220AD7580FF1220AD7580FE122039
:1012F800A4E52F75F00A842430F510E52F75F00A5F
:1013080084E5F02430F511E53075F00A842430F5D1
:1013180013E53075F00A84E5F02430F514E52D75F1
:10132800F00A842430F516E52D75F00A84E5F024DA
:1013380030F517E52B75F00A842430F51DE52B757B
:10134800F00A84E5F02430F51EE52E75F00A8424B1
:1013580030F520E52E75F00A84E5F02430F52120DB
:10136800B7227F0A7E001220AD20B718050EE4F5DB
:101378000FF50DE50EC394084003E4F50E7D08AFA4
:101388000E121DE330B2030212F97F0A7E0012200A
:10139800AD30B2030212F9050F7F351220ADE4F526
:1013A80008F509E50925E0FDE50833FCE50D75F0CC
:1013B80080A4AEF02DF50BEE3CF50AE50E0414B44E
:1013C8001000400302153C9013DD75F003A4C5839B
:1013D80025F0C583730214C602140D0214150214F5
:1013E8001D02142502144B02145302146702147BC5
:1013F80002148302148B02149302149B0214A30296
:1014080014AB0214B3AF0BEF90022E8058AF0BEF62
:101418009002AE8050AF0BEF90032E804874AE253B
:101428000BF5827403350AF583E493F58074AF25D0
:101438000BF5827403350AF583E493F5A0750C1057
:1014480002153CAF0BEF9005AE801AAF0BEF90067C
:101458002E93F580EFA393F5A0750C0302153CAF0E
:101468000BEF90068E93F580EFA393F5A0750C040F
:1014780002153CAF0BEF90070E8036AF0BEF9007CD
:1014880010802EAF0BEF9007128026AF0BEF90075E
:1014980014801EAF0BEF9007168016AF0BEF900766
:1014A80018800EAF0BEF90071A8006AF0BEF90076E
:1014B8001C93F580EFA393F5A0E4F50C8076750CEA
:1014C800047E00E5095407FFAB19AA1AA91B1216D6
:1014D800DB75F008A42FF582EE35F0F583E582245C
:1014E8001EF582E5833406F583E493F580E5095417
:1014F80007FFAB25AA26A9271216DB75F008A42F2B
:10150800F582EE35F0F583E582241EF582E5833415
:1015180006F583E493F5A0E50954076407701504FC
:10152800251BF51BE4351AF51A74012527F527E460
:101538003526F5267F647E001220E8E50925E0FDC2
:10154800E50833FCE50D75F080A42DFFE5F03CCFF0
:101558002402FDE43FFCE50C75F020A4FFC3ED9FD9
:10156800EC95F04025E50F94084005E4F50FF50DDE
:1015780075080075093F751900751A00751B1075F7
:10158800250075260075271C80140509E5097002D9
:101598000508C39440E508940050030213ABE5091D
:1015A80025E0FDE50833FCE50D75F080A42DFFE589
:1015B800F03CCF2402FDE43FFCE50C75F020A4FFCD
:1015C800C3ED9FEC95F040030212F9E50FC39408B0
:0D15D80050030212F9E4F50F050D0212F99F
:100E9100E4F508F509F50AF50BF50CF50DF50EF578
:100EA1000FF512F513F514751504F51678177C0076
:100EB100FD7BFF7A0E7988FE7F091216B5E4F520D5
:100EC10075210E752246F5237524007525177FC8F7
:100ED100FE1220AD7580EF1220AD7580FF1220AD9E
:100EE1007580EF1220A4050DE50D7002050C20B7E9
:100EF1001C0514E514C395154003E4F514121DDF18
:100F0100E4F508F509F512F513F50EF50FE52F7562
:100F1100F00A842430F517E52F75F00A84E5F024F2
:100F210030F518E53075F00A842430F51AE530758E
:100F3100F00A84E5F02430F51BE52D75F00A8424D0
:100F410030F51DE52D75F00A84E5F02430F51EE538
:100F510014604714700302105E24FE7003021076C1
:100F61000460030210C5752003751001751180E539
:100F7100132509FFE5123508FE74AE2FF5827403BF
:100F81003EF583E493F4F58074AF2FF58274033E4C
:100F9100F583E493F4F5A00210C5752002AB23AAF2
:100FA10024A9251216DB75F008A4250BF582E5F0BE
:100FB100350AF583E582241EF582E5833406F5833F
:100FC100E493F580050BE50B7002050AC39408E56F
:100FD1000A940050030210C5E4F50AF50B04252517
:100FE100F525E43524F524AB23FAA9251216DB6097
:100FF100030210C5F52375240075251730903020A4
:10100100B7200514E514C395154003E4F514121D2A
:10101100DFE4F508F509F512F513F50EF50FF50AFC
:10102100F50B1220E4050BE50B70D1050A80CDAE5E
:101031000AAF0B7C007D461216F4EF7803CEC31382
:10104100CE13D8F9FFAD227C00121706EF250DF55E
:101051000DEE350CF50CE4F50AF50B8067752001F2
:101061007510007511E0E5132509FF900A1693F537
:10107100A0EFA3804C7520017510007511E0E513F8
:101081002509FFE5123508FE75F0E0E516A424F602
:10109100F582E5F0340AF583E5822FF582E5833E9A
:1010A100F583E493F5A075F0E0E516A424F7F58245
:1010B100E5F0340AF583E5822FF582E5833EF58379
:1010C100E493F580AF227E001220E87580FF75A0C1
:1010D100FFE52275F00784FF7E001220E8E5132565
:1010E10009FFE5123508FEE51124FEFDE51034FF88
:1010F100FCC3EF9DEE9C407775A0FF7580FF30909B
:101101004220B7200514E514C395154003E4F514F6
:10111100121DDFE4F508F509F512F513F50EF50FCB
:10112100F50AF50BE52064036005E520B4010D1215
:1011310020E4050BE50B70C6050A80C2E4F50AF54B
:101141000B80BBAE0AAF0B7C007D461216F4EF7824
:1011510003CEC313CE13D8F9FFAD227C00121706BC
:10116100EF250DF50DEE350CF50CE4F50AF50B3018
:101171009026E5132509FFE5123508FEE51124FE49
:10118100FDE51034FFFCC3EF9DEE9C500B7402256E
:1011910009F509E43508F508309003020EE7E52169
:1011A10075F008A4FFAEF02401FDE43EFCD3E50D8B
:1011B1009DE50C9C40020522EF24FFFFEE34FFFE6B
:1011C100C3E50D9FE50C9E50021522E4F50CF50DCB
:1011D100F523752400752517F50AF50B7580FFE5D4
:1011E1001124FEFFE51034FFFEC3E5139FE5129EB7
:1011F100400BE4F512F513F50EF50F800B74022583
:1012010013F513E43512F512E520B402047F0180D1
:10121100027F00E520B401047E0180027E00EE4FD2
:101221006005E4F512F513E4F508F5093090FDE5E4
:1012310020B4033AC3E50F9478E50E94005012747C
:1012410002250FF50FE4350EF50EE4F512F51380C6
:1012510006750E00750F78C37478950FFFE4950E2F
:10126100FEAD227C001216F41220E8020EE7050FF3
:10127100E50F7002050ED39402E50E9400500302AF
:101281000EE7E4F50EF50F0516E51664046003029A
:071291000EE7F516020EE75F
:101CED00E4F547F548754907754AD07580FF209092
:101CFD001185474985484AE4F547F5487580FF3019
:101D0D0090FD3090E90548E548700205477F2F7E2C
:101D1D00001220E8AE47AF48E4FCFD7BDC7AFFF90A
:101D2D00F8C312175B50067547077548D0AE49AF1B
:101D3D004A7C007D051216F4AA06AB07AE47AF48E4
:101D4D007D3B1216F4AD03AC02121706D3ED94448D
:101D5D00EC940050087580FC75A0FF800675A0FFFF
:101D6D007580FFAE47AF487C007D3B1216F4AC4941
:101D7D00AD4A1217067C00EFB52D0AECB5060675B7
:101D8D00A0005380037C00EFB5300AECB506067554
:101D9D00A00053807FAE47AF487C007D3B1216F408
:101DAD00AC49AD4A121706AC06AD07E52F75F00527
:101DBD00A4FFAEF0E53075F00C847A002FFFEA3EFB
:101DCD00FEED6F7002EC6E6003021CFB53A001026E
:021DDD001CFBED
:10177D00E4F541F5427543037544E8F545F54675C5
:10178D0080FF20900E854143854244E4F541F542AA
:10179D003090FD3090EC0542E542700205417F50DE
:1017AD007E001220E8AE41AF42E4FCFD7BDC7AFF07
:1017BD00F9F8C312175B50067541EA754260AE43E6
:1017CD00AF447C007D0F1216F4AA06AB07AE41AFF5
:1017DD00427D3B1216F4AD03AC021217068C458DFB
:1017ED0046AE43AF447C007D051216F4AA06AB0746
:1017FD00AE41AF427D3B1216F4AD03AC021217069B
:10180D00D3ED943CEC940050067580FE75A0FFD38B
:10181D00E546943CE545940050035380F8D3ED9490
:10182D003CEC9400400675A0FF7580FFE52F75F028
:10183D000C84AFF07545008F46AF2D7E00AC43ADE7
:10184D00441216F4EF24E2FBEE34FFFAAE41AF4240
:10185D007C007D3B1216F4D3EF9BEE9A402AAF2D00
:10186D007E00AC43AD441216F4EF241EFBE43EFAA9
:10187D00AE41AF427C007D3B1216F4C3EF9BEE9A56
:10188D00500675A000538003AE41AF427C007D3BF6
:10189D001216F4AA06AB07AC43AD441217067C0032
:1018AD00EFB5300AECB5060675A00053801FAC43AA
:1018BD00AD44AF03AE02121706AA06AB07AE45AF95
:1018CD00467C007D051216F4E53075F00C842FFF73
:1018DD00EC3EFEEB6F7002EA6E600302178FF5A00F
:0318ED0002178F50
:1018F000E4F533F5347535037536E8F582F583F58F
:1019000037F538F5397580FF752D0A75300A752F52
:101910000A2090020539C3E539648094814010851E
:101920003335853436E4F533F534F5393090FD053B
:1019300034E534700205337F3C7E001220E8AE337C
:10194000AF34E4FCFD7BDC7AFFF9F8C312175B507F
:10195000067533EA753460AE35AF367C007D0F1204
:1019600016F4AA06AB07AE33AF347D3B1216F4ADC6
:1019700003AC021217068C838D82AE35AF367C0025
:101980007D051216F4AA06AB07AE33AF347D3B12C9
:1019900016F4AD03AC021217068C378D38D3E582EE
:1019A000943CE583940050035380F8D3E538943C8D
:1019B000E537940050085380FE75A0FF800675A09F
:1019C000FF7580FFAE33AF347C007D3B1216F48E82
:1019D000838F82AF2D7E00AC35AD361216F48E3774
:1019E0008F38E53824CEFFE53734FFFED3E5829FFC
:1019F000E5839E4018E5382432FFE43537FEC3E521
:101A0000829FE5839E500675A000538003AE33AFDE
:101A1000347C007D3B1216F4AC35AD361217068EC1
:101A2000378F38E530B53809E4B53705F5A0538070
:101A30001FE52F75F00C84E5F075F005A4FFAEF0FE
:101A4000E53075F00C847C002FF582EC3EF583E5E3
:101A50003865827004E53765836003021911F5A0CB
:031A600002191157
:101A6300E4F53AF53B753C03753DE8F582F583F5FE
:101A73003EF53FF5407580FF752D0A75300A752FC9
:101A83000A2090020540C3E540648094814010859C
:101A93003A3C853B3DE4F53AF53BF5403090FD0596
:101AA3003BE53B7002053A7F3C7E001220E8AE3AEC
:101AB300AF3BE4FCFD7BDC7AFFF9F8C312175B5004
:101AC30006753AEA753B60AE3CAF3D7C007D0F1274
:101AD30016F4AA06AB07AE3AAF3B7D3B1216F4AD44
:101AE30003AC021217068C838D82AE3CAF3D7C00A3
:101AF3007D051216F4AA06AB07AE3AAF3B7D3B1247
:101B030016F4AD03AC021217068C3E8D3FD3E5826B
:101B1300943CE583940050035380F8D3E53F943C11
:101B2300E53E940050085380FE75A0FF800675A023
:101B3300FF7580FFAE3AAF3B7C007D3B1216F4AAE3
:101B430006AB078A838B82AF2D7E00AC3CAD3D1282
:101B530016F48E3E8F3FAF03AE02121706D3EF95F6
:101B63002DEE940050035380EF8E3E8F3FD3E53F1D
:101B73009530E53E9400500353807FE52F75F00CBC
:101B830084E5F075F005A4FFAEF0E53075F00C8444
:101B93007C002FF582EC3EF583D3E53F9582E53E4D
:0D1BA30095834003021A8453A0FB021A84AC
:101BB000E4F508F509F50AF50BF50C750D01F50EC0
:101BC000750F0575100175112CF5127FC8FE1220D6
:101BD000AD75A0FE1220AD75A0FF1220AD75A0FE60
:101BE0001220AD75A0FF7FF40E1220AD75F020E538
:101BF00012A4F58285F083AF0975F002EF12177118
:101C0000E582240EF582E5833400F583E493F5A0A4
:101C100075F020E512A4F58285F08375F002EF12CD
:101C20001771E582240FF582E5833400F583E49390
:101C3000F5807F5A7E001220E87FC87E001220E8DF
:101C40000509E5097002050825E0FFE50833FEEF08
:101C50002402FFE43EFEC3EF9420EE9400400DE426
:101C6000F508F509050BE50B7002050A20B73905E3
:101C700012E50D6401450C7006F50CF50DF512AF7B
:101C800012EF3395E0FEC3EF950FEE950E400E7503
:101C900012FF750C00750D01E4F50AF50BE5120451
:101CA000FFE50F04FD121DE3E50D6401450C600323
:101CB000021BECD3E512648094805003E4F512C358
:101CC000E50B9511E50A95105003021BECE4F50AAB
:101CD000F50B0512AF12EF3395E0FEC3EF950FEE53
:0D1CE000950E5003021BECE4F512021BEC04
:101E8500758901758CEEE4F58AD2AFD2A9D28CD2D0
:101E9500901220F37F81121FB78F2D7F83121FB7FA
:101EA5008F307F85121FB78F2F7F87121FB78F2E19
:101EB5007F89121FB78F2B7F8D121FB78F2CE52EB1
:101EC500C3942050287F8D121FB7EFB52C1F7F8933
:101ED500121FB7EFB52B167F87121FB7EFB52E0D63
:101EE500E4F5A07FF47E011220AD75A0FF209503D7
:101EF50012129830B1047F0180027F003095047E74
:101F05000180027E00EE5F6003120E913095047F22
:101F15000180027F0020B1047E0180027E00EE5F19
:061F25006003121BB02254
:03000B0002206D63
:10206D00C0E0C0D0758CEE758A000532E532700285
:10207D00053164C845317006052DF531F532E52D74
:10208D00B43C050530752D00E530B43C05052F75C4
:07209D003000D0D0D0E0328A
:03000000021F2BB1
:0C1F2B00787FE4F6D8FD75814A021F7231
:1015E500E709F608DFFA8046E709F208DFFA803EE8
:1015F50088828C83E709F0A3DFFA8032E309F608D5
:10160500DFFA8078E309F208DFFA807088828C833C
:10161500E309F0A3DFFA806489828A83E0A3F608F0
:10162500DFFA805889828A83E0A3F208DFFA804CCA
:1016350080D280FA80C680D4806980F280338010A1
:1016450080A680EA809A80A880DA80E280CA80330A
:1016550089828A83ECFAE493A3C8C582C8CCC58382
:10166500CCF0A3C8C582C8CCC583CCDFE9DEE78052
:101675000D89828A83E493A3F608DFF9ECFAA9F0D1
:10168500EDFB2289828A83ECFAE0A3C8C582C8CC27
:10169500C583CCF0A3C8C582C8CCC583CCDFEADE40
:1016A500E880DB89828A83E493A3F208DFF980CCA2
:1016B50088F0EF60010E4E60C388F0ED2402B4049B
:1016C5000050B9F582EB2402B4040050AF23234542
:0616D5008223901635731C
:1016DB00BB010689828A83E0225002E722BBFE020D
:0916EB00E32289828A83E4932240
:1016F400EF8DF0A4A8F0CF8CF0A428CE8DF0A42E0A
:02170400FE22C3
:10170600BC000BBE0029EF8DF084FFADF022E4CCC7
:10171600F875F008EF2FFFEE33FEEC33FCEE9DEC90
:10172600984005FCEE9DFE0FD5F0E9E4CEFD22EDD6
:10173600F8F5F0EE8420D21CFEADF075F008EF2F20
:10174600FFED33FD4007985006D5F0F222C398FD11
:051756000FD5F0EA22AE
:10175B00EB9FF5F0EA9E42F0E99D42F0EC6480C805
:06176B0064809845F022A5
:0C177100A42582F582E5F03583F5832283
:101F3700021E85E493A3F8E493A34003F68001F21D
:101F470008DFF48029E493A3F85407240CC8C333AB
:101F5700C4540F4420C8834004F456800146F6DF7A
:101F6700E4800B01020408102040809020CDE47E1D
:101F7700019360BCA3FF543F30E509541FFEE4936F
:101F8700A360010ECF54C025E060A840B8E493A336
:101F9700FAE493A3F8E493A3C8C582C8CAC583CA61
:101FA700F0A3C8C582C8CAC583CADFE9DEE780BE19
:0120E30000FC
:00000001FF
