C51 COMPILER V8.02   TEXT1                                                                 07/29/2017 15:25:54 PAGE 1   


C51 COMPILER V8.02, COMPILATION OF MODULE TEXT1
OBJECT MODULE PLACED IN Text1.OBJ
COMPILER INVOKED BY: D:\keil英文\C51\BIN\C51.EXE Text1.c BROWSE DEBUG OBJECTEXTEND TABS(5)

line level    source

   1          #include <reg52.h>
   2          sbit KEY=P3^6;                                            /*定位红外接收引脚*/
   3          code unsigned  int love[] = {    /***********只需更改数组和z的值*****/
   4                 0xFF,0xFF,                                        /*上到下，左到右，上高*/
   5          
   6          0xFF,0x3F,0x00,0xFD,0x5D,0x73,0x54,0xBF,0x55,0xD3,0x54,0x3D,0x54,0xFD,0x1D,0x6D,
   7          0xFF,0xF5,0xEB,0xFD,0xED,0xB9,0xEF,0xDF,0x00,0x37,0xEF,0xF9,0xEF,0xFF,0xFF,0xFF,/*"慰",0*/
   8          
   9          0xBD,0xF7,0xBD,0xF7,0x80,0x0E,0xBD,0xDD,0xAF,0xE3,0x60,0x1E,0x8D,0xF9,0xEC,0x06,
  10          0xF7,0xFD,0xEB,0x03,0x1B,0xFB,0xD8,0x01,0xDB,0x7D,0xDB,0x7C,0xDB,0x7D,0xFF,0xFF,/*"璇",1*/
  11          
  12          0xBD,0xF7,0xBD,0xF7,0x80,0x0F,0xBD,0xEE,0xBD,0x6D,0xF8,0xFB,0xFF,0xE7,0x00,0x1F,
  13          0xFF,0xFB,0xBD,0xFB,0xBD,0xFB,0x80,0x03,0xBD,0xFB,0xBD,0xFB,0xBD,0xFB,0xFF,0xFF,/*"班",2*/
  14          
  15          0xFE,0xFF,0xFE,0xFF,0xFE,0xFF,0xFE,0xFF,0x00,0x00,0xFA,0xFD,0xFA,0x7B,0xF6,0xB7,
  16          0xF6,0xDF,0xEE,0xEF,0xDE,0xF7,0xBE,0xF3,0xFE,0xF9,0xFE,0xFB,0xFE,0xFF,0xFF,0xFF,/*"长",3*/
  17          
  18          0xFE,0xFF,0xFE,0xFD,0xFE,0xFB,0xFE,0xF7,0x82,0x8F,0xAA,0xF7,0xAA,0xFB,0xAA,0x03,
  19          0xAA,0xDD,0xAA,0xDD,0xAA,0xDD,0x82,0xDD,0xFE,0xDD,0xFE,0xFD,0xFE,0xFD,0xFF,0xFF,/*"是",4*/
  20          
  21          0xFF,0xFF,0xFE,0xFF,0xFE,0xFF,0xFD,0xFF,0xFB,0xFF,0xF7,0xFF,0xCF,0xFF,0x38,0x01,
  22          0xDF,0xFF,0xEF,0xFF,0xF7,0xFF,0xFB,0xFF,0xF9,0xFF,0xFC,0xFF,0xFD,0xFF,0xFF,0xFF,/*"个",5*/
  23          
  24          0xFF,0xFF,0xC0,0x0F,0xDF,0xBF,0xDF,0xBF,0xC0,0x1F,0xFB,0xFF,0xE5,0xF3,0x0D,0xED,
  25          0xAD,0xDD,0xED,0xBD,0xED,0x7D,0xEC,0xFD,0xEF,0xFD,0xEF,0xFD,0xEF,0xF1,0xFF,0xFF,/*"吃",6*/
  26          
  27          0xFF,0xFF,0xF7,0xFF,0xEF,0xFE,0xC2,0x06,0x1E,0xFD,0xBE,0xFB,0xEE,0xF7,0xEE,0x8F,
  28          0x06,0xF7,0xDA,0xFB,0xDA,0xF9,0xDA,0x0C,0xBB,0xFD,0xB3,0xFF,0xFF,0xFF,0xFF,0xFF,/*"货",7*/
  29          
  30          0xFF,0xFD,0xFF,0xFD,0xBF,0xFB,0x9F,0xFB,0xA7,0xF7,0xB9,0xF7,0xBE,0x6F,0xBF,0x9F,
  31          0xBF,0x9F,0xBE,0x6F,0xB9,0xF7,0xA7,0xF7,0x9F,0xFB,0xFF,0xF9,0xFF,0xFB,0xFF,0xFF,/*"又",8*/
  32          
  33          0xFE,0xFF,0xFE,0xFD,0xFE,0xFB,0xFE,0xF7,0x82,0x8F,0xAA,0xF7,0xAA,0xFB,0xAA,0x03,
  34          0xAA,0xDD,0xAA,0xDD,0xAA,0xDD,0x82,0xDD,0xFE,0xDD,0xFE,0xFD,0xFE,0xFD,0xFF,0xFF,/*"是",9*/
  35          
  36          0xFF,0xFF,0xFE,0xFF,0xFE,0xFF,0xFD,0xFF,0xFB,0xFF,0xF7,0xFF,0xCF,0xFF,0x38,0x01,
  37          0xDF,0xFF,0xEF,0xFF,0xF7,0xFF,0xFB,0xFF,0xF9,0xFF,0xFC,0xFF,0xFD,0xFF,0xFF,0xFF,/*"个",10*/
  38          
  39          0xFD,0xFD,0xBD,0xFB,0xCC,0x07,0xFF,0xFB,0xFF,0xFD,0xBF,0xED,0xA1,0x6D,0xAD,0x8D,
  40          0xAD,0xED,0xAD,0xED,0xAD,0xCD,0xA1,0x2D,0xBF,0xED,0xBF,0xED,0xFF,0xFD,0xFF,0xFF,/*"逗",11*/
  41          
  42          0xFF,0xFF,0xFF,0xFF,0x00,0x01,0xFB,0xFB,0xFB,0xF7,0xFB,0xEF,0xFB,0xFF,0xFF,0xFF,
  43          0x00,0x03,0xFD,0xFD,0xFD,0xFD,0xFD,0xFD,0xFB,0xFD,0xFB,0xFD,0xFB,0xE1,0xFF,0xFF,/*"比",12*/
  44          
  45          0xFF,0xFF,0xFF,0xFF,0xFF,0xE5,0xFF,0xE3,0xFF,0xFF,0xFF,0xFF,0xFF,0xFF,0xFF,0xFF,
  46          0xFF,0xFF,0xFF,0xFF,0xFF,0xFF,0xFF,0xFF,0xFF,0xFF,0xFF,0xFF,0xFF,0xFF,0xFF,0xFF,/*"，",13*/
  47          
  48          0xC0,0x1F,0xDF,0x7F,0xDF,0x7F,0xC0,0x3F,0xFB,0xFF,0xFB,0xFF,0xF5,0x01,0xED,0x7B,
  49          0xDD,0x7B,0x3D,0x7B,0xDD,0x7B,0xED,0x7B,0xE5,0x01,0xF3,0xFF,0xF7,0xFF,0xFF,0xFF,/*"哈",14*/
  50          
  51          0xC0,0x1F,0xDF,0x7F,0xDF,0x7F,0xC0,0x3F,0xFB,0xFF,0xFB,0xFF,0xF5,0x01,0xED,0x7B,
  52          0xDD,0x7B,0x3D,0x7B,0xDD,0x7B,0xED,0x7B,0xE5,0x01,0xF3,0xFF,0xF7,0xFF,0xFF,0xFF,/*"哈",15*/
  53          
  54          0xFF,0xFF,0xFF,0xE7,0xFF,0xDB,0xFF,0xDB,0xFF,0xE7,0xFF,0xFF,0xFF,0xFF,0xFF,0xFF,
  55          0xFF,0xFF,0xFF,0xFF,0xFF,0xFF,0xFF,0xFF,0xFF,0xFF,0xFF,0xFF,0xFF,0xFF,0xFF,0xFF,/*"。",16*/
C51 COMPILER V8.02   TEXT1                                                                 07/29/2017 15:25:54 PAGE 2   

  56          
  57          };
  58          /*****n（us）延时子程序*****/
  59          void DelayUs(unsigned int N)
  60              {
  61   1              unsigned int x ;
  62   1              for(x=0;x<=N;x++);
  63   1          }
  64          /*主程序*/
  65          main()
  66              {
  67   1               unsigned int i=0,j=0,z=17*32+2,k=0,m=0,n=0;                /*共有z个元素*/
  68   1              while(1)
  69   1              {         
  70   2      
  71   2                        P2=love[k-i];       
  72   2                        P0=love[k+1-i];                           
  73   2                        DelayUs(70);
  74   2                        P0=0XFF;
  75   2                        P2=0XFF;
  76   2                        DelayUs(10);
  77   2                        if(KEY==0)
  78   2                        {
  79   3                             if(k-i>0)
  80   3                             {i=i+2;}
  81   3                        }
  82   2                      if(KEY==1)
  83   2                      {        
  84   3                            if(i==0)
  85   3                            {k=0;
  86   4                             j=0;
  87   4                            }   
  88   3                                if(k>=z-2)
  89   3                                {k=z-4;
  90   4                                 j++;
  91   4                                }
  92   3                                m++;
  93   3                                if(m==1)
  94   3                                {
  95   4                                     if(k<z-2)
  96   4                                     {k=k+2;}
  97   4                                     i=0;
  98   4                                     m=0;
  99   4                                }
 100   3                           
 101   3                     while(KEY); 
 102   3                     DelayUs(j*100);
 103   3                     }
 104   2                     
 105   2      
 106   2              }
 107   1      }


MODULE INFORMATION:   STATIC OVERLAYABLE
   CODE SIZE        =    246    ----
   CONSTANT SIZE    =   1092    ----
   XDATA SIZE       =   ----    ----
   PDATA SIZE       =   ----    ----
   DATA SIZE        =   ----      10
   IDATA SIZE       =   ----    ----
   BIT SIZE         =   ----    ----
C51 COMPILER V8.02   TEXT1                                                                 07/29/2017 15:25:54 PAGE 3   

END OF MODULE INFORMATION.


C51 COMPILATION COMPLETE.  0 WARNING(S),  0 ERROR(S)
